Component: ARM Compiler 5.06 update 7 (build 960) Tool: armlink [4d3601]

==============================================================================

Section Cross References

    delay.o(i.delay_init) refers to misc.o(i.SysTick_CLKSourceConfig) for SysTick_CLKSourceConfig
    delay.o(i.delay_init) refers to system_stm32f10x.o(.data) for SystemCoreClock
    delay.o(i.delay_init) refers to delay.o(.data) for fac_us
    delay.o(i.delay_ms) refers to delay.o(.data) for fac_ms
    delay.o(i.delay_us) refers to delay.o(.data) for fac_us
    sys.o(i.NVIC_Configuration) refers to misc.o(i.NVIC_PriorityGroupConfig) for NVIC_PriorityGroupConfig
    sys.o(i.NVIC_Configuration) refers to misc.o(i.NVIC_Init) for NVIC_Init
    sys.o(i.SYS_Init) refers to sys.o(i.NVIC_Configuration) for NVIC_Configuration
    sys.o(i.SYS_Init) refers to delay.o(i.delay_init) for delay_init
    sys.o(i.SYS_Init) refers to motor.o(i.Motor_Init) for Motor_Init
    sys.o(i.SYS_Init) refers to oled.o(i.OLED_Init) for OLED_Init
    sys.o(i.SYS_Init) refers to oled.o(i.OLED_Clear) for OLED_Clear
    sys.o(i.SYS_Init) refers to encoder.o(i.Encoder_Init_TIM2) for Encoder_Init_TIM2
    sys.o(i.SYS_Init) refers to encoder.o(i.Encoder_Init_TIM3) for Encoder_Init_TIM3
    sys.o(i.SYS_Init) refers to usart.o(i.uart_init) for uart_init
    sys.o(i.SYS_Init) refers to usart2.o(i.uart2_init) for uart2_init
    sys.o(i.SYS_Init) refers to timer.o(i.TIM4_Int_Init) for TIM4_Int_Init
    sys.o(i.SYS_Init) refers to mpu6050.o(i.MPU_Init) for MPU_Init
==============================================================================

Removing Unused input sections from the image.

    Removing sys.o(i.Scence_Show), (108 bytes).
    Removing misc.o(i.NVIC_SetVectorTable), (20 bytes).
    Removing misc.o(i.NVIC_SystemLPConfig), (32 bytes).
    Removing stm32f10x_gpio.o(i.GPIO_AFIODeInit), (20 bytes).
    Removing stm32f10x_gpio.o(i.GPIO_DeInit), (200 bytes).
    Removing stm32f10x_gpio.o(i.GPIO_ETH_MediaInterfaceConfig), (12 bytes).
    Removing stm32f10x_gpio.o(i.GPIO_EventOutputCmd), (12 bytes).
    Removing stm32f10x_gpio.o(i.GPIO_EventOutputConfig), (32 bytes).
    Removing stm32f10x_gpio.o(i.GPIO_PinLockConfig), (18 bytes).
    Removing stm32f10x_gpio.o(i.GPIO_ReadInputData), (8 bytes).
    Removing stm32f10x_gpio.o(i.GPIO_ReadOutputData), (8 bytes).
    Removing stm32f10x_gpio.o(i.GPIO_ReadOutputDataBit), (18 bytes).
    Removing stm32f10x_gpio.o(i.GPIO_ResetBits), (4 bytes).
    Removing stm32f10x_gpio.o(i.GPIO_StructInit), (16 bytes).
    Removing stm32f10x_gpio.o(i.GPIO_Write), (4 bytes).
    Removing stm32f10x_dbgmcu.o(i.DBGMCU_Config), (32 bytes).
    Removing stm32f10x_dbgmcu.o(i.DBGMCU_GetDEVID), (16 bytes).
    Removing stm32f10x_dbgmcu.o(i.DBGMCU_GetREVID), (12 bytes).
==============================================================================

Image Symbol Table

    Local Symbols

    Symbol Name                              Value     Ov Type        Size  Object(Section)

    ../clib/angel/boardlib.s                 0x00000000   Number         0  boardinit3.o ABSOLUTE
    ../clib/angel/boardlib.s                 0x00000000   Number         0  boardinit1.o ABSOLUTE
    ../clib/angel/boardlib.s                 0x00000000   Number         0  boardinit2.o ABSOLUTE
    ../clib/angel/boardlib.s                 0x00000000   Number         0  boardshut.o ABSOLUTE
    ../clib/angel/dczerorl2.s                0x00000000   Number         0  __dczerorl2.o ABSOLUTE
    ../clib/angel/handlers.s                 0x00000000   Number         0  __scatter_zi.o ABSOLUTE
    ../clib/angel/kernel.s                   0x00000000   Number         0  __rtentry2.o ABSOLUTE
    ../clib/angel/kernel.s                   0x00000000   Number         0  rtexit.o ABSOLUTE
    ../clib/angel/kernel.s                   0x00000000   Number         0  __rtentry.o ABSOLUTE
    ../clib/angel/kernel.s                   0x00000000   Number         0  __rtentry4.o ABSOLUTE
    ../clib/angel/kernel.s                   0x00000000   Number         0  rtexit2.o ABSOLUTE
    ../clib/angel/rt.s                       0x00000000   Number         0  rt_errno_addr.o ABSOLUTE
    ../clib/angel/rt.s                       0x00000000   Number         0  aeabi_ldiv0_sigfpe.o ABSOLUTE
    ../clib/angel/rt.s                       0x00000000   Number         0  rt_errno_addr_intlibspace.o ABSOLUTE
    ../clib/angel/rt.s                       0x00000000   Number         0  rt_raise.o ABSOLUTE
    ../clib/angel/rt.s                       0x00000000   Number         0  aeabi_ldiv0.o ABSOLUTE
    ../clib/angel/rt.s                       0x00000000   Number         0  rt_div0.o ABSOLUTE
    ../clib/angel/scatter.s                  0x00000000   Number         0  __scatter.o ABSOLUTE
    ../clib/angel/startup.s                  0x00000000   Number         0  __main.o ABSOLUTE
    ../clib/angel/sys.s                      0x00000000   Number         0  use_no_semi_2.o ABSOLUTE
    ../clib/angel/sys.s                      0x00000000   Number         0  sys_stackheap_outer.o ABSOLUTE
    ../clib/angel/sys.s                      0x00000000   Number         0  use_no_semi.o ABSOLUTE
    ../clib/angel/sys.s                      0x00000000   Number         0  libspace.o ABSOLUTE
    ../clib/angel/sys.s                      0x00000000   Number         0  indicate_semi.o ABSOLUTE
    ../clib/angel/sysapp.c                   0x00000000   Number         0  sys_command.o ABSOLUTE
    ../clib/angel/sysapp.c                   0x00000000   Number         0  sys_wrch.o ABSOLUTE
    ../clib/armsys.c                         0x00000000   Number         0  _get_argv_nomalloc.o ABSOLUTE
    ../clib/armsys.c                         0x00000000   Number         0  argv_veneer.o ABSOLUTE
    ../clib/armsys.c                         0x00000000   Number         0  no_argv.o ABSOLUTE
    ../clib/armsys.c                         0x00000000   Number         0  argv_veneer.o ABSOLUTE
    ../clib/fenv.c                           0x00000000   Number         0  _rserrno.o ABSOLUTE
    ../clib/heapalloc.c                      0x00000000   Number         0  hrguard.o ABSOLUTE
    ../clib/heapaux.c                        0x00000000   Number         0  heapauxi.o ABSOLUTE
    ../clib/libinit.s                        0x00000000   Number         0  libshutdown2.o ABSOLUTE
    ../clib/libinit.s                        0x00000000   Number         0  libinit2.o ABSOLUTE
    ../clib/libinit.s                        0x00000000   Number         0  libinit.o ABSOLUTE
    ../clib/libinit.s                        0x00000000   Number         0  libshutdown.o ABSOLUTE
    ../clib/longlong.s                       0x00000000   Number         0  lludivv7m.o ABSOLUTE
    ../clib/longlong.s                       0x00000000   Number         0  llsdiv.o ABSOLUTE
    ../clib/memcpset.s                       0x00000000   Number         0  rt_memclr.o ABSOLUTE
    ../clib/memcpset.s                       0x00000000   Number         0  aeabi_memset.o ABSOLUTE
    ../clib/memcpset.s                       0x00000000   Number         0  rt_memclr_w.o ABSOLUTE
    ../clib/misc.s                           0x00000000   Number         0  printf_stubs.o ABSOLUTE
    ../clib/printf.c                         0x00000000   Number         0  __printf_flags_wp.o ABSOLUTE
    ../clib/printf.c                         0x00000000   Number         0  _printf_hex_int_ll_ptr.o ABSOLUTE
    ../clib/printf.c                         0x00000000   Number         0  _printf_hex_ll_ptr.o ABSOLUTE
    ../clib/printf.c                         0x00000000   Number         0  _printf_hex_ptr.o ABSOLUTE
    ../clib/printf.c                         0x00000000   Number         0  _printf_hex_int_ll.o ABSOLUTE
    ../clib/printf.c                         0x00000000   Number         0  _printf_hex_int.o ABSOLUTE
    ../clib/printf.c                         0x00000000   Number         0  _printf_hex_ll.o ABSOLUTE
    ../clib/printf.c                         0x00000000   Number         0  _printf_dec.o ABSOLUTE
    ../clib/printf.c                         0x00000000   Number         0  _printf_pad.o ABSOLUTE
    ../clib/printf.c                         0x00000000   Number         0  __printf.o ABSOLUTE
    ../clib/printf.c                         0x00000000   Number         0  noretval__2printf.o ABSOLUTE
    ../clib/printf.c                         0x00000000   Number         0  __2printf.o ABSOLUTE
    ../clib/printf.c                         0x00000000   Number         0  __printf_nopercent.o ABSOLUTE
    ../clib/printf.c                         0x00000000   Number         0  _printf_hex_int_ptr.o ABSOLUTE
    ../clib/printf.c                         0x00000000   Number         0  _printf_char_common.o ABSOLUTE
    ../clib/printf.c                         0x00000000   Number         0  _printf_char_file.o ABSOLUTE
    ../clib/printf.c                         0x00000000   Number         0  _printf_intcommon.o ABSOLUTE
    ../clib/printf.c                         0x00000000   Number         0  __printf_flags_ss_wp.o ABSOLUTE
    ../clib/printf.c                         0x00000000   Number         0  __printf_ss_wp.o ABSOLUTE
    ../clib/printf.c                         0x00000000   Number         0  __printf_wp.o ABSOLUTE
    ../clib/printf.c                         0x00000000   Number         0  __printf_flags_ss.o ABSOLUTE
    ../clib/printf.c                         0x00000000   Number         0  __printf_ss.o ABSOLUTE
    ../clib/printf.c                         0x00000000   Number         0  __printf_flags.o ABSOLUTE
    ../clib/printf_percent.s                 0x00000000   Number         0  _printf_percent_end.o ABSOLUTE
    ../clib/printf_percent.s                 0x00000000   Number         0  _printf_d.o ABSOLUTE
    ../clib/printf_percent.s                 0x00000000   Number         0  _printf_x.o ABSOLUTE
    ../clib/printf_percent.s                 0x00000000   Number         0  _printf_percent.o ABSOLUTE
    ../clib/signal.c                         0x00000000   Number         0  defsig_segv_inner.o ABSOLUTE
    ../clib/signal.c                         0x00000000   Number         0  defsig_stak_inner.o ABSOLUTE
    ../clib/signal.c                         0x00000000   Number         0  defsig_cppl_inner.o ABSOLUTE
    ../clib/signal.c                         0x00000000   Number         0  defsig_rtmem_outer.o ABSOLUTE
    ../clib/signal.c                         0x00000000   Number         0  defsig_abrt_inner.o ABSOLUTE
    ../clib/signal.c                         0x00000000   Number         0  defsig_rtred_inner.o ABSOLUTE
    ../clib/signal.c                         0x00000000   Number         0  defsig_rtmem_formal.o ABSOLUTE
    ../clib/signal.c                         0x00000000   Number         0  defsig_rtmem_inner.o ABSOLUTE
    ../clib/signal.c                         0x00000000   Number         0  defsig_pvfn_inner.o ABSOLUTE
    ../clib/signal.c                         0x00000000   Number         0  defsig_exit.o ABSOLUTE
    ../clib/signal.c                         0x00000000   Number         0  defsig_fpe_inner.o ABSOLUTE
    ../clib/signal.c                         0x00000000   Number         0  __raise.o ABSOLUTE
    ../clib/signal.c                         0x00000000   Number         0  defsig_fpe_outer.o ABSOLUTE
    ../clib/signal.c                         0x00000000   Number         0  defsig_fpe_formal.o ABSOLUTE
    ../clib/signal.c                         0x00000000   Number         0  defsig_general.o ABSOLUTE
    ../clib/signal.c                         0x00000000   Number         0  defsig_other.o ABSOLUTE
    ../clib/signal.s                         0x00000000   Number         0  defsig.o ABSOLUTE
    ../clib/stdio.c                          0x00000000   Number         0  ferror.o ABSOLUTE
    ../clib/stdio.c                          0x00000000   Number         0  ferror_locked.o ABSOLUTE
    ../clib/stdlib.c                         0x00000000   Number         0  exit.o ABSOLUTE
    ../clib/string.c                         0x00000000   Number         0  memcmp.o ABSOLUTE
    ../fplib/d2f.s                           0x00000000   Number         0  d2f.o ABSOLUTE
    ../fplib/daddsub.s                       0x00000000   Number         0  daddsub_clz.o ABSOLUTE
    ../fplib/dcheck1.s                       0x00000000   Number         0  dcheck1.o ABSOLUTE
    ../fplib/dcmpi.s                         0x00000000   Number         0  dcmpi.o ABSOLUTE
    ../fplib/ddiv.s                          0x00000000   Number         0  ddiv.o ABSOLUTE
    ../fplib/deqf.s                          0x00000000   Number         0  deqf.o ABSOLUTE
    ../fplib/dflt.s                          0x00000000   Number         0  dflt_clz.o ABSOLUTE
    ../fplib/dleqf.s                         0x00000000   Number         0  dleqf.o ABSOLUTE
    ../fplib/dmul.s                          0x00000000   Number         0  dmul.o ABSOLUTE
    ../fplib/dnaninf.s                       0x00000000   Number         0  dnaninf.o ABSOLUTE
    ../fplib/dretinf.s                       0x00000000   Number         0  dretinf.o ABSOLUTE
    ../fplib/dsqrt.s                         0x00000000   Number         0  dsqrt_noumaal.o ABSOLUTE
    ../fplib/f2d.s                           0x00000000   Number         0  f2d.o ABSOLUTE
    ../fplib/faddsub.s                       0x00000000   Number         0  faddsub_clz.o ABSOLUTE
    ../fplib/fcmpi.s                         0x00000000   Number         0  fcmpi.o ABSOLUTE
    ../fplib/fdiv.s                          0x00000000   Number         0  fdiv.o ABSOLUTE
    ../fplib/feqf.s                          0x00000000   Number         0  feqf.o ABSOLUTE
    ../fplib/ffix.s                          0x00000000   Number         0  ffix.o ABSOLUTE
    ../fplib/ffixu.s                         0x00000000   Number         0  ffixu.o ABSOLUTE
    ../fplib/fflt.s                          0x00000000   Number         0  fflt_clz.o ABSOLUTE
    ../fplib/fleqf.s                         0x00000000   Number         0  fleqf.o ABSOLUTE
    ../fplib/fmul.s                          0x00000000   Number         0  fmul.o ABSOLUTE
    ../fplib/fnaninf.s                       0x00000000   Number         0  fnaninf.o ABSOLUTE
    ../fplib/fpinit.s                        0x00000000   Number         0  fpinit.o ABSOLUTE
    ../fplib/fretinf.s                       0x00000000   Number         0  fretinf.o ABSOLUTE
    ../fplib/frleqf.s                        0x00000000   Number         0  frleqf.o ABSOLUTE
    ../fplib/retnan.s                        0x00000000   Number         0  retnan.o ABSOLUTE
    ../fplib/scalbn.s                        0x00000000   Number         0  scalbn.o ABSOLUTE
    ../fplib/trapv.s                         0x00000000   Number         0  trapv.o ABSOLUTE
    ../fplib/usenofp.s                       0x00000000   Number         0  usenofp.o ABSOLUTE
    ../mathlib/asin.c                        0x00000000   Number         0  asin_x.o ABSOLUTE
    ../mathlib/asin.c                        0x00000000   Number         0  asin.o ABSOLUTE
    ../mathlib/atan.c                        0x00000000   Number         0  atan_x.o ABSOLUTE
    ../mathlib/atan.c                        0x00000000   Number         0  atan.o ABSOLUTE
    ../mathlib/atan2.c                       0x00000000   Number         0  atan2_x.o ABSOLUTE
    ../mathlib/atan2.c                       0x00000000   Number         0  atan2.o ABSOLUTE
    ../mathlib/dunder.c                      0x00000000   Number         0  dunder.o ABSOLUTE
    ../mathlib/fpclassify.c                  0x00000000   Number         0  fpclassify.o ABSOLUTE
    ../mathlib/poly.c                        0x00000000   Number         0  poly.o ABSOLUTE
    ../mathlib/qnan.c                        0x00000000   Number         0  qnan.o ABSOLUTE
    ../mathlib/sqrt.c                        0x00000000   Number         0  sqrt.o ABSOLUTE
    ../mathlib/sqrt.c                        0x00000000   Number         0  sqrt_x.o ABSOLUTE
    ..\CORE\core_cm3.c                       0x00000000   Number         0  core_cm3.o ABSOLUTE
    ..\CORE\startup_stm32f10x_md.s           0x00000000   Number         0  startup_stm32f10x_md.o ABSOLUTE
    ..\HARDWARE\MPU6050\eMPL\inv_mpu.c       0x00000000   Number         0  inv_mpu.o ABSOLUTE
    ..\HARDWARE\MPU6050\eMPL\inv_mpu_dmp_motion_driver.c 0x00000000   Number         0  inv_mpu_dmp_motion_driver.o ABSOLUTE
    ..\HARDWARE\MPU6050\mpu6050.c            0x00000000   Number         0  mpu6050.o ABSOLUTE
    ..\HARDWARE\MPU6050\mpuiic.c             0x00000000   Number         0  mpuiic.o ABSOLUTE
    ..\HARDWARE\control\control.c            0x00000000   Number         0  control.o ABSOLUTE
    ..\HARDWARE\datascope_DP\DataScope_DP.C  0x00000000   Number         0  datascope_dp.o ABSOLUTE
    ..\HARDWARE\encoder\encoder.c            0x00000000   Number         0  encoder.o ABSOLUTE
    ..\HARDWARE\led\led.c                    0x00000000   Number         0  led.o ABSOLUTE
    ..\HARDWARE\motor\motor.c                0x00000000   Number         0  motor.o ABSOLUTE
    ..\HARDWARE\mpu_exti\mpu_exti.c          0x00000000   Number         0  mpu_exti.o ABSOLUTE
    ..\HARDWARE\oled\oled.c                  0x00000000   Number         0  oled.o ABSOLUTE
    ..\HARDWARE\pwm\pwm.c                    0x00000000   Number         0  pwm.o ABSOLUTE
    ..\HARDWARE\timer\timer.c                0x00000000   Number         0  timer.o ABSOLUTE
    ..\HARDWARE\usart2\usart2.c              0x00000000   Number         0  usart2.o ABSOLUTE
    ..\STM32F10x_FWLib\src\misc.c            0x00000000   Number         0  misc.o ABSOLUTE
    ..\STM32F10x_FWLib\src\stm32f10x_dbgmcu.c 0x00000000   Number         0  stm32f10x_dbgmcu.o ABSOLUTE
    ..\STM32F10x_FWLib\src\stm32f10x_exti.c  0x00000000   Number         0  stm32f10x_exti.o ABSOLUTE
    ..\STM32F10x_FWLib\src\stm32f10x_gpio.c  0x00000000   Number         0  stm32f10x_gpio.o ABSOLUTE
    ..\STM32F10x_FWLib\src\stm32f10x_rcc.c   0x00000000   Number         0  stm32f10x_rcc.o ABSOLUTE
    ..\STM32F10x_FWLib\src\stm32f10x_tim.c   0x00000000   Number         0  stm32f10x_tim.o ABSOLUTE
    ..\STM32F10x_FWLib\src\stm32f10x_usart.c 0x00000000   Number         0  stm32f10x_usart.o ABSOLUTE
    ..\SYSTEM\delay\delay.c                  0x00000000   Number         0  delay.o ABSOLUTE
    ..\SYSTEM\sys\sys.c                      0x00000000   Number         0  sys.o ABSOLUTE
    ..\SYSTEM\usart\usart.c                  0x00000000   Number         0  usart.o ABSOLUTE
    ..\\CORE\\core_cm3.c                     0x00000000   Number         0  core_cm3.o ABSOLUTE
    dc.s                                     0x00000000   Number         0  dc.o ABSOLUTE
    main.c                                   0x00000000   Number         0  main.o ABSOLUTE
    stm32f10x_it.c                           0x00000000   Number         0  stm32f10x_it.o ABSOLUTE
    system_stm32f10x.c                       0x00000000   Number         0  system_stm32f10x.o ABSOLUTE
    RESET                                    0x08000000   Section      236  startup_stm32f10x_md.o(RESET)
    !!!main                                  0x080000ec   Section        8  __main.o(!!!main)
    !!!scatter                               0x080000f4   Section       52  __scatter.o(!!!scatter)
    !!dczerorl2                              0x08000128   Section       90  __dczerorl2.o(!!dczerorl2)
    !!handler_zi                             0x08000184   Section       28  __scatter_zi.o(!!handler_zi)
    .ARM.Collect$$_printf_percent$$00000000  0x080001a0   Section        0  _printf_percent.o(.ARM.Collect$$_printf_percent$$00000000)
    .ARM.Collect$$_printf_percent$$00000009  0x080001a0   Section        6  _printf_d.o(.ARM.Collect$$_printf_percent$$00000009)
    .ARM.Collect$$_printf_percent$$00000017  0x080001a6   Section        4  _printf_percent_end.o(.ARM.Collect$$_printf_percent$$00000017)
    .ARM.Collect$$libinit$$00000000          0x080001aa   Section        2  libinit.o(.ARM.Collect$$libinit$$00000000)
    .ARM.Collect$$libinit$$00000002          0x080001ac   Section        0  libinit2.o(.ARM.Collect$$libinit$$00000002)
    .ARM.Collect$$libinit$$00000004          0x080001ac   Section        0  libinit2.o(.ARM.Collect$$libinit$$00000004)
    .ARM.Collect$$libinit$$0000000A          0x080001ac   Section        0  libinit2.o(.ARM.Collect$$libinit$$0000000A)
    .ARM.Collect$$libinit$$0000000C          0x080001ac   Section        0  libinit2.o(.ARM.Collect$$libinit$$0000000C)
    .ARM.Collect$$libinit$$0000000E          0x080001ac   Section        0  libinit2.o(.ARM.Collect$$libinit$$0000000E)
    .ARM.Collect$$libinit$$00000011          0x080001ac   Section        0  libinit2.o(.ARM.Collect$$libinit$$00000011)
    .ARM.Collect$$libinit$$00000013          0x080001ac   Section        0  libinit2.o(.ARM.Collect$$libinit$$00000013)
    .ARM.Collect$$libinit$$00000015          0x080001ac   Section        0  libinit2.o(.ARM.Collect$$libinit$$00000015)
    .ARM.Collect$$libinit$$00000017          0x080001ac   Section        0  libinit2.o(.ARM.Collect$$libinit$$00000017)
    .ARM.Collect$$libinit$$00000019          0x080001ac   Section        0  libinit2.o(.ARM.Collect$$libinit$$00000019)
    .ARM.Collect$$libinit$$0000001B          0x080001ac   Section        0  libinit2.o(.ARM.Collect$$libinit$$0000001B)
    .ARM.Collect$$libinit$$0000001D          0x080001ac   Section        0  libinit2.o(.ARM.Collect$$libinit$$0000001D)
    .ARM.Collect$$libinit$$0000001F          0x080001ac   Section        0  libinit2.o(.ARM.Collect$$libinit$$0000001F)
    .ARM.Collect$$libinit$$00000021          0x080001ac   Section        0  libinit2.o(.ARM.Collect$$libinit$$00000021)
    .ARM.Collect$$libinit$$00000023          0x080001ac   Section        0  libinit2.o(.ARM.Collect$$libinit$$00000023)
    .ARM.Collect$$libinit$$00000025          0x080001ac   Section        0  libinit2.o(.ARM.Collect$$libinit$$00000025)
    .ARM.Collect$$libinit$$0000002C          0x080001ac   Section        0  libinit2.o(.ARM.Collect$$libinit$$0000002C)
    .ARM.Collect$$libinit$$0000002E          0x080001ac   Section        0  libinit2.o(.ARM.Collect$$libinit$$0000002E)
    .ARM.Collect$$libinit$$00000030          0x080001ac   Section        0  libinit2.o(.ARM.Collect$$libinit$$00000030)
    .ARM.Collect$$libinit$$00000032          0x080001ac   Section        0  libinit2.o(.ARM.Collect$$libinit$$00000032)
    .ARM.Collect$$libinit$$00000033          0x080001ac   Section        2  libinit2.o(.ARM.Collect$$libinit$$00000033)
    .ARM.Collect$$libshutdown$$00000000      0x080001ae   Section        2  libshutdown.o(.ARM.Collect$$libshutdown$$00000000)
    .ARM.Collect$$libshutdown$$00000002      0x080001b0   Section        0  libshutdown2.o(.ARM.Collect$$libshutdown$$00000002)
    .ARM.Collect$$libshutdown$$00000004      0x080001b0   Section        0  libshutdown2.o(.ARM.Collect$$libshutdown$$00000004)
    .ARM.Collect$$libshutdown$$00000006      0x080001b0   Section        0  libshutdown2.o(.ARM.Collect$$libshutdown$$00000006)
    .ARM.Collect$$libshutdown$$00000009      0x080001b0   Section        0  libshutdown2.o(.ARM.Collect$$libshutdown$$00000009)
    .ARM.Collect$$libshutdown$$0000000C      0x080001b0   Section        0  libshutdown2.o(.ARM.Collect$$libshutdown$$0000000C)
    .ARM.Collect$$libshutdown$$0000000E      0x080001b0   Section        0  libshutdown2.o(.ARM.Collect$$libshutdown$$0000000E)
    .ARM.Collect$$libshutdown$$00000011      0x080001b0   Section        0  libshutdown2.o(.ARM.Collect$$libshutdown$$00000011)
    .ARM.Collect$$libshutdown$$00000012      0x080001b0   Section        2  libshutdown2.o(.ARM.Collect$$libshutdown$$00000012)
    .ARM.Collect$$rtentry$$00000000          0x080001b2   Section        0  __rtentry.o(.ARM.Collect$$rtentry$$00000000)
    .ARM.Collect$$rtentry$$00000002          0x080001b2   Section        0  __rtentry2.o(.ARM.Collect$$rtentry$$00000002)
    .ARM.Collect$$rtentry$$00000004          0x080001b2   Section        6  __rtentry4.o(.ARM.Collect$$rtentry$$00000004)
    .ARM.Collect$$rtentry$$00000009          0x080001b8   Section        0  __rtentry2.o(.ARM.Collect$$rtentry$$00000009)
    .ARM.Collect$$rtentry$$0000000A          0x080001b8   Section        4  __rtentry2.o(.ARM.Collect$$rtentry$$0000000A)
    .ARM.Collect$$rtentry$$0000000C          0x080001bc   Section        0  __rtentry2.o(.ARM.Collect$$rtentry$$0000000C)
    .ARM.Collect$$rtentry$$0000000D          0x080001bc   Section        8  __rtentry2.o(.ARM.Collect$$rtentry$$0000000D)
    .ARM.Collect$$rtexit$$00000000           0x080001c4   Section        2  rtexit.o(.ARM.Collect$$rtexit$$00000000)
    .ARM.Collect$$rtexit$$00000002           0x080001c6   Section        0  rtexit2.o(.ARM.Collect$$rtexit$$00000002)
    .ARM.Collect$$rtexit$$00000003           0x080001c6   Section        4  rtexit2.o(.ARM.Collect$$rtexit$$00000003)
    .ARM.Collect$$rtexit$$00000004           0x080001ca   Section        6  rtexit2.o(.ARM.Collect$$rtexit$$00000004)
    .text                                    0x080001d0   Section       64  startup_stm32f10x_md.o(.text)
    .text                                    0x08000210   Section        2  use_no_semi_2.o(.text)
    .text                                    0x08000212   Section       72  llsdiv.o(.text)
    .text                                    0x0800025c   Section        0  noretval__2printf.o(.text)
    .text                                    0x08000274   Section        0  _printf_dec.o(.text)
    .text                                    0x080002ec   Section        0  __printf_flags_wp.o(.text)
    .text                                    0x08000424   Section        0  memcmp.o(.text)
    .text                                    0x0800047c   Section       16  aeabi_memset.o(.text)
    .text                                    0x0800048c   Section        0  heapauxi.o(.text)
    .text                                    0x08000492   Section        2  use_no_semi.o(.text)
    .text                                    0x08000494   Section      238  lludivv7m.o(.text)
    .text                                    0x08000582   Section        0  _rserrno.o(.text)
    .text                                    0x08000598   Section        0  _printf_intcommon.o(.text)
    .text                                    0x0800064c   Section        0  _printf_char_file.o(.text)
    .text                                    0x08000670   Section       68  rt_memclr.o(.text)
    .text                                    0x080006b4   Section        8  rt_errno_addr_intlibspace.o(.text)
    .text                                    0x080006bc   Section        0  _printf_char_common.o(.text)
    _printf_input_char                       0x080006bd   Thumb Code    10  _printf_char_common.o(.text)
    .text                                    0x080006ec   Section        0  ferror.o(.text)
    .text                                    0x080006f4   Section       78  rt_memclr_w.o(.text)
    .text                                    0x08000744   Section        8  libspace.o(.text)
    .text                                    0x0800074c   Section       74  sys_stackheap_outer.o(.text)
    .text                                    0x08000796   Section        0  exit.o(.text)
    i.BusFault_Handler                       0x080007a8   Section        0  stm32f10x_it.o(i.BusFault_Handler)
    i.DebugMon_Handler                       0x080007ac   Section        0  stm32f10x_it.o(i.DebugMon_Handler)
    i.Direction_Mode                         0x080007b0   Section        0  control.o(i.Direction_Mode)
    i.EXTI9_5_IRQHandler                     0x08000a00   Section        0  control.o(i.EXTI9_5_IRQHandler)
    i.EXTI_Init                              0x08000ee4   Section        0  stm32f10x_exti.o(i.EXTI_Init)
    i.Encoder_Init_TIM2                      0x08000f78   Section        0  encoder.o(i.Encoder_Init_TIM2)
    i.Encoder_Init_TIM3                      0x08001018   Section        0  encoder.o(i.Encoder_Init_TIM3)
    i.GPIO_EXTILineConfig                    0x080010b4   Section        0  stm32f10x_gpio.o(i.GPIO_EXTILineConfig)
    i.GPIO_Init                              0x080010f4   Section        0  stm32f10x_gpio.o(i.GPIO_Init)
    i.GPIO_PinRemapConfig                    0x0800120c   Section        0  stm32f10x_gpio.o(i.GPIO_PinRemapConfig)
    i.GPIO_ReadInputDataBit                  0x0800129c   Section        0  stm32f10x_gpio.o(i.GPIO_ReadInputDataBit)
    i.GPIO_SetBits                           0x080012ae   Section        0  stm32f10x_gpio.o(i.GPIO_SetBits)
    i.GPIO_WriteBit                          0x080012b2   Section        0  stm32f10x_gpio.o(i.GPIO_WriteBit)
    i.HardFault_Handler                      0x080012bc   Section        0  stm32f10x_it.o(i.HardFault_Handler)
    i.MPU6050_EXTI_Init                      0x080012c0   Section        0  mpu_exti.o(i.MPU6050_EXTI_Init)
    i.MPU_Get_Accelerometer                  0x08001310   Section        0  mpu6050.o(i.MPU_Get_Accelerometer)
    i.MPU_Get_Gyroscope                      0x08001360   Section        0  mpu6050.o(i.MPU_Get_Gyroscope)
    i.MPU_IIC_Ack                            0x080013b0   Section        0  mpuiic.o(i.MPU_IIC_Ack)
    i.MPU_IIC_Delay                          0x080013fc   Section        0  mpuiic.o(i.MPU_IIC_Delay)
    i.MPU_IIC_Init                           0x08001408   Section        0  mpuiic.o(i.MPU_IIC_Init)
    i.MPU_IIC_NAck                           0x08001450   Section        0  mpuiic.o(i.MPU_IIC_NAck)
    i.MPU_IIC_Read_Byte                      0x0800149c   Section        0  mpuiic.o(i.MPU_IIC_Read_Byte)
    i.MPU_IIC_Send_Byte                      0x08001508   Section        0  mpuiic.o(i.MPU_IIC_Send_Byte)
    i.MPU_IIC_Start                          0x08001564   Section        0  mpuiic.o(i.MPU_IIC_Start)
    i.MPU_IIC_Stop                           0x080015ac   Section        0  mpuiic.o(i.MPU_IIC_Stop)
    i.MPU_IIC_Wait_Ack                       0x080015f4   Section        0  mpuiic.o(i.MPU_IIC_Wait_Ack)
    i.MPU_Init                               0x08001658   Section        0  mpu6050.o(i.MPU_Init)
    i.MPU_Read_Byte                          0x080016d2   Section        0  mpu6050.o(i.MPU_Read_Byte)
    i.MPU_Read_Len                           0x0800170c   Section        0  mpu6050.o(i.MPU_Read_Len)
    i.MPU_Set_Accel_Fsr                      0x08001780   Section        0  mpu6050.o(i.MPU_Set_Accel_Fsr)
    i.MPU_Set_Gyro_Fsr                       0x08001790   Section        0  mpu6050.o(i.MPU_Set_Gyro_Fsr)
    i.MPU_Set_LPF                            0x080017a0   Section        0  mpu6050.o(i.MPU_Set_LPF)
    i.MPU_Set_Rate                           0x080017da   Section        0  mpu6050.o(i.MPU_Set_Rate)
    i.MPU_Write_Byte                         0x08001814   Section        0  mpu6050.o(i.MPU_Write_Byte)
    i.MPU_Write_Len                          0x08001858   Section        0  mpu6050.o(i.MPU_Write_Len)
    i.MemManage_Handler                      0x080018b8   Section        0  stm32f10x_it.o(i.MemManage_Handler)
    i.Motor_Init                             0x080018bc   Section        0  motor.o(i.Motor_Init)
    i.NMI_Handler                            0x080018ec   Section        0  stm32f10x_it.o(i.NMI_Handler)
    i.NVIC_Configuration                     0x080018ee   Section        0  sys.o(i.NVIC_Configuration)
    i.NVIC_Init                              0x0800194c   Section        0  misc.o(i.NVIC_Init)
    i.NVIC_PriorityGroupConfig               0x080019bc   Section        0  misc.o(i.NVIC_PriorityGroupConfig)
    i.OLED_Clear                             0x080019d0   Section        0  oled.o(i.OLED_Clear)
    i.OLED_DrawBMP                           0x080019fa   Section        0  oled.o(i.OLED_DrawBMP)
    i.OLED_I2C_Init                          0x08001a70   Section        0  oled.o(i.OLED_I2C_Init)
    i.OLED_I2C_SendByte                      0x08001ac0   Section        0  oled.o(i.OLED_I2C_SendByte)
    i.OLED_I2C_Start                         0x08001b14   Section        0  oled.o(i.OLED_I2C_Start)
    i.OLED_I2C_Stop                          0x08001b48   Section        0  oled.o(i.OLED_I2C_Stop)
    i.OLED_Init                              0x08001b70   Section        0  oled.o(i.OLED_Init)
    i.OLED_Pow                               0x08001c1e   Section        0  oled.o(i.OLED_Pow)
    i.OLED_SetCursor                         0x08001c32   Section        0  oled.o(i.OLED_SetCursor)
    i.OLED_ShowChar                          0x08001c54   Section        0  oled.o(i.OLED_ShowChar)
    i.OLED_ShowNum                           0x08001cc8   Section        0  oled.o(i.OLED_ShowNum)
    i.OLED_ShowSignedNum                     0x08001d0c   Section        0  oled.o(i.OLED_ShowSignedNum)
    i.OLED_ShowString                        0x08001d72   Section        0  oled.o(i.OLED_ShowString)
    i.OLED_WriteCommand                      0x08001d9a   Section        0  oled.o(i.OLED_WriteCommand)
    i.OLED_WriteData                         0x08001dba   Section        0  oled.o(i.OLED_WriteData)
    i.PWM_Init                               0x08001ddc   Section        0  pwm.o(i.PWM_Init)
    i.PendSV_Handler                         0x08001ea4   Section        0  stm32f10x_it.o(i.PendSV_Handler)
    i.RCC_APB1PeriphClockCmd                 0x08001ea8   Section        0  stm32f10x_rcc.o(i.RCC_APB1PeriphClockCmd)
    i.RCC_APB2PeriphClockCmd                 0x08001ec8   Section        0  stm32f10x_rcc.o(i.RCC_APB2PeriphClockCmd)
    i.RCC_GetClocksFreq                      0x08001ee8   Section        0  stm32f10x_rcc.o(i.RCC_GetClocksFreq)
    i.Read_Encoder                           0x08001fbc   Section        0  encoder.o(i.Read_Encoder)
    i.SVC_Handler                            0x0800200c   Section        0  stm32f10x_it.o(i.SVC_Handler)
    i.SYS_Init                               0x08002010   Section        0  sys.o(i.SYS_Init)
    i.SetSysClock                            0x080020a4   Section        0  system_stm32f10x.o(i.SetSysClock)
    SetSysClock                              0x080020a5   Thumb Code     8  system_stm32f10x.o(i.SetSysClock)
    i.SetSysClockTo72                        0x080020ac   Section        0  system_stm32f10x.o(i.SetSysClockTo72)
    SetSysClockTo72                          0x080020ad   Thumb Code   214  system_stm32f10x.o(i.SetSysClockTo72)
    i.Set_MaxSpeed                           0x0800218c   Section        0  control.o(i.Set_MaxSpeed)
    i.Set_Pwm                                0x080021f0   Section        0  motor.o(i.Set_Pwm)
    i.SysTick_CLKSourceConfig                0x08002264   Section        0  misc.o(i.SysTick_CLKSourceConfig)
    i.SysTick_Handler                        0x0800228c   Section        0  stm32f10x_it.o(i.SysTick_Handler)
    i.SystemInit                             0x08002290   Section        0  system_stm32f10x.o(i.SystemInit)
    i.TI1_Config                             0x080022f0   Section        0  stm32f10x_tim.o(i.TI1_Config)
    TI1_Config                               0x080022f1   Thumb Code   108  stm32f10x_tim.o(i.TI1_Config)
    i.TI2_Config                             0x08002370   Section        0  stm32f10x_tim.o(i.TI2_Config)
    TI2_Config                               0x08002371   Thumb Code   130  stm32f10x_tim.o(i.TI2_Config)
    i.TI3_Config                             0x08002408   Section        0  stm32f10x_tim.o(i.TI3_Config)
    TI3_Config                               0x08002409   Thumb Code   122  stm32f10x_tim.o(i.TI3_Config)
    i.TI4_Config                             0x08002498   Section        0  stm32f10x_tim.o(i.TI4_Config)
    TI4_Config                               0x08002499   Thumb Code   130  stm32f10x_tim.o(i.TI4_Config)
    i.TIM2_IRQHandler                        0x08002530   Section        0  encoder.o(i.TIM2_IRQHandler)
    i.TIM3_IRQHandler                        0x08002548   Section        0  encoder.o(i.TIM3_IRQHandler)
    i.TIM4_IRQHandler                        0x08002560   Section        0  timer.o(i.TIM4_IRQHandler)
    i.TIM4_Int_Init                          0x080025fc   Section        0  timer.o(i.TIM4_Int_Init)
    i.TIM_ARRPreloadConfig                   0x0800263c   Section        0  stm32f10x_tim.o(i.TIM_ARRPreloadConfig)
    i.TIM_ClearFlag                          0x08002654   Section        0  stm32f10x_tim.o(i.TIM_ClearFlag)
    i.TIM_ClearITPendingBit                  0x0800265a   Section        0  stm32f10x_tim.o(i.TIM_ClearITPendingBit)
    i.TIM_Cmd                                0x08002660   Section        0  stm32f10x_tim.o(i.TIM_Cmd)
    i.TIM_CtrlPWMOutputs                     0x08002678   Section        0  stm32f10x_tim.o(i.TIM_CtrlPWMOutputs)
    i.TIM_EncoderInterfaceConfig             0x08002696   Section        0  stm32f10x_tim.o(i.TIM_EncoderInterfaceConfig)
    i.TIM_GetITStatus                        0x080026d8   Section        0  stm32f10x_tim.o(i.TIM_GetITStatus)
    i.TIM_ICInit                             0x080026fc   Section        0  stm32f10x_tim.o(i.TIM_ICInit)
    i.TIM_ICStructInit                       0x080027a8   Section        0  stm32f10x_tim.o(i.TIM_ICStructInit)
    i.TIM_ITConfig                           0x080027ba   Section        0  stm32f10x_tim.o(i.TIM_ITConfig)
    i.TIM_OC1Init                            0x080027cc   Section        0  stm32f10x_tim.o(i.TIM_OC1Init)
    i.TIM_OC1PreloadConfig                   0x08002864   Section        0  stm32f10x_tim.o(i.TIM_OC1PreloadConfig)
    i.TIM_OC4Init                            0x08002878   Section        0  stm32f10x_tim.o(i.TIM_OC4Init)
    i.TIM_OC4PreloadConfig                   0x080028f4   Section        0  stm32f10x_tim.o(i.TIM_OC4PreloadConfig)
    i.TIM_SetCounter                         0x0800290e   Section        0  stm32f10x_tim.o(i.TIM_SetCounter)
    i.TIM_SetIC1Prescaler                    0x08002912   Section        0  stm32f10x_tim.o(i.TIM_SetIC1Prescaler)
    i.TIM_SetIC2Prescaler                    0x08002924   Section        0  stm32f10x_tim.o(i.TIM_SetIC2Prescaler)
    i.TIM_SetIC3Prescaler                    0x0800293e   Section        0  stm32f10x_tim.o(i.TIM_SetIC3Prescaler)
    i.TIM_SetIC4Prescaler                    0x08002950   Section        0  stm32f10x_tim.o(i.TIM_SetIC4Prescaler)
    i.TIM_TimeBaseInit                       0x0800296c   Section        0  stm32f10x_tim.o(i.TIM_TimeBaseInit)
    i.TIM_TimeBaseStructInit                 0x08002a10   Section        0  stm32f10x_tim.o(i.TIM_TimeBaseStructInit)
    i.Turn                                   0x08002a24   Section        0  control.o(i.Turn)
    i.USART1_IRQHandler                      0x08002c54   Section        0  usart.o(i.USART1_IRQHandler)
    i.USART2_IRQHandler                      0x08002cdc   Section        0  usart2.o(i.USART2_IRQHandler)
    i.USART_Cmd                              0x08002f74   Section        0  stm32f10x_usart.o(i.USART_Cmd)
    i.USART_GetITStatus                      0x08002f8c   Section        0  stm32f10x_usart.o(i.USART_GetITStatus)
    i.USART_ITConfig                         0x08002fe0   Section        0  stm32f10x_usart.o(i.USART_ITConfig)
    i.USART_Init                             0x0800302c   Section        0  stm32f10x_usart.o(i.USART_Init)
    i.USART_ReceiveData                      0x08003104   Section        0  stm32f10x_usart.o(i.USART_ReceiveData)
    i.UsageFault_Handler                     0x0800310e   Section        0  stm32f10x_it.o(i.UsageFault_Handler)
    i.Vertical                               0x08003114   Section        0  control.o(i.Vertical)
    i.Xianfu_Pwm                             0x0800315c   Section        0  motor.o(i.Xianfu_Pwm)
    i.__ARM_fpclassify                       0x080031b0   Section        0  fpclassify.o(i.__ARM_fpclassify)
    i.__kernel_poly                          0x080031d8   Section        0  poly.o(i.__kernel_poly)
    i.__mathlib_dbl_infnan                   0x08003282   Section        0  dunder.o(i.__mathlib_dbl_infnan)
    i.__mathlib_dbl_infnan2                  0x08003288   Section        0  dunder.o(i.__mathlib_dbl_infnan2)
    i.__mathlib_dbl_invalid                  0x0800328c   Section        0  dunder.o(i.__mathlib_dbl_invalid)
    i.__mathlib_dbl_underflow                0x08003298   Section        0  dunder.o(i.__mathlib_dbl_underflow)
    i._is_digit                              0x080032a8   Section        0  __printf_wp.o(i._is_digit)
    i._sys_exit                              0x080032b6   Section        0  usart.o(i._sys_exit)
    i.accel_self_test                        0x080032bc   Section        0  inv_mpu.o(i.accel_self_test)
    accel_self_test                          0x080032bd   Thumb Code   164  inv_mpu.o(i.accel_self_test)
    i.asin                                   0x08003364   Section        0  asin.o(i.asin)
    i.atan                                   0x080035d4   Section        0  atan.o(i.atan)
    i.atan2                                  0x080037f4   Section        0  atan2.o(i.atan2)
    i.decode_gesture                         0x08003990   Section        0  inv_mpu_dmp_motion_driver.o(i.decode_gesture)
    decode_gesture                           0x08003991   Thumb Code    94  inv_mpu_dmp_motion_driver.o(i.decode_gesture)
    i.delay_init                             0x080039f4   Section        0  delay.o(i.delay_init)
    i.delay_ms                               0x08003a38   Section        0  delay.o(i.delay_ms)
    i.delay_us                               0x08003a84   Section        0  delay.o(i.delay_us)
    i.dmp_enable_6x_lp_quat                  0x08003ad0   Section        0  inv_mpu_dmp_motion_driver.o(i.dmp_enable_6x_lp_quat)
    i.dmp_enable_feature                     0x08003b0c   Section        0  inv_mpu_dmp_motion_driver.o(i.dmp_enable_feature)
    i.dmp_enable_gyro_cal                    0x08003d28   Section        0  inv_mpu_dmp_motion_driver.o(i.dmp_enable_gyro_cal)
    i.dmp_enable_lp_quat                     0x08003d80   Section        0  inv_mpu_dmp_motion_driver.o(i.dmp_enable_lp_quat)
    i.dmp_load_motion_driver_firmware        0x08003dbc   Section        0  inv_mpu_dmp_motion_driver.o(i.dmp_load_motion_driver_firmware)
    i.dmp_read_fifo                          0x08003dd4   Section        0  inv_mpu_dmp_motion_driver.o(i.dmp_read_fifo)
    i.dmp_set_accel_bias                     0x08003fa0   Section        0  inv_mpu_dmp_motion_driver.o(i.dmp_set_accel_bias)
    i.dmp_set_fifo_rate                      0x080040d0   Section        0  inv_mpu_dmp_motion_driver.o(i.dmp_set_fifo_rate)
    i.dmp_set_gyro_bias                      0x08004140   Section        0  inv_mpu_dmp_motion_driver.o(i.dmp_set_gyro_bias)
    i.dmp_set_orientation                    0x08004270   Section        0  inv_mpu_dmp_motion_driver.o(i.dmp_set_orientation)
    i.dmp_set_shake_reject_thresh            0x080043a8   Section        0  inv_mpu_dmp_motion_driver.o(i.dmp_set_shake_reject_thresh)
    i.dmp_set_shake_reject_time              0x080043e0   Section        0  inv_mpu_dmp_motion_driver.o(i.dmp_set_shake_reject_time)
    i.dmp_set_shake_reject_timeout           0x08004406   Section        0  inv_mpu_dmp_motion_driver.o(i.dmp_set_shake_reject_timeout)
    i.dmp_set_tap_axes                       0x0800442c   Section        0  inv_mpu_dmp_motion_driver.o(i.dmp_set_tap_axes)
    i.dmp_set_tap_count                      0x08004472   Section        0  inv_mpu_dmp_motion_driver.o(i.dmp_set_tap_count)
    i.dmp_set_tap_thresh                     0x08004498   Section        0  inv_mpu_dmp_motion_driver.o(i.dmp_set_tap_thresh)
    i.dmp_set_tap_time                       0x08004638   Section        0  inv_mpu_dmp_motion_driver.o(i.dmp_set_tap_time)
    i.dmp_set_tap_time_multi                 0x0800465e   Section        0  inv_mpu_dmp_motion_driver.o(i.dmp_set_tap_time_multi)
    i.fputc                                  0x08004684   Section        0  usart.o(i.fputc)
    i.get_accel_prod_shift                   0x080046a0   Section        0  inv_mpu.o(i.get_accel_prod_shift)
    get_accel_prod_shift                     0x080046a1   Thumb Code   168  inv_mpu.o(i.get_accel_prod_shift)
    i.get_st_biases                          0x08004754   Section        0  inv_mpu.o(i.get_st_biases)
    get_st_biases                            0x08004755   Thumb Code  1128  inv_mpu.o(i.get_st_biases)
    i.gyro_self_test                         0x08004bc0   Section        0  inv_mpu.o(i.gyro_self_test)
    gyro_self_test                           0x08004bc1   Thumb Code   256  inv_mpu.o(i.gyro_self_test)
    i.inv_orientation_matrix_to_scalar       0x08004cd0   Section        0  inv_mpu.o(i.inv_orientation_matrix_to_scalar)
    i.inv_row_2_scale                        0x08004cf8   Section        0  inv_mpu.o(i.inv_row_2_scale)
    i.main                                   0x08004d48   Section        0  main.o(i.main)
    i.mget_ms                                0x08004e00   Section        0  inv_mpu.o(i.mget_ms)
    i.mpu_configure_fifo                     0x08004e04   Section        0  inv_mpu.o(i.mpu_configure_fifo)
    i.mpu_dmp_get_data                       0x08004e74   Section        0  inv_mpu.o(i.mpu_dmp_get_data)
    i.mpu_dmp_init                           0x08005098   Section        0  inv_mpu.o(i.mpu_dmp_init)
    i.mpu_get_accel_fsr                      0x08005138   Section        0  inv_mpu.o(i.mpu_get_accel_fsr)
    i.mpu_get_accel_sens                     0x08005184   Section        0  inv_mpu.o(i.mpu_get_accel_sens)
    i.mpu_get_fifo_config                    0x080051d8   Section        0  inv_mpu.o(i.mpu_get_fifo_config)
    i.mpu_get_gyro_fsr                       0x080051e8   Section        0  inv_mpu.o(i.mpu_get_gyro_fsr)
    i.mpu_get_gyro_sens                      0x0800522c   Section        0  inv_mpu.o(i.mpu_get_gyro_sens)
    i.mpu_get_lpf                            0x0800527c   Section        0  inv_mpu.o(i.mpu_get_lpf)
    i.mpu_get_sample_rate                    0x080052cc   Section        0  inv_mpu.o(i.mpu_get_sample_rate)
    i.mpu_init                               0x080052ec   Section        0  inv_mpu.o(i.mpu_init)
    i.mpu_load_firmware                      0x080054dc   Section        0  inv_mpu.o(i.mpu_load_firmware)
    i.mpu_lp_accel_mode                      0x08005594   Section        0  inv_mpu.o(i.mpu_lp_accel_mode)
    i.mpu_read_fifo_stream                   0x08005674   Section        0  inv_mpu.o(i.mpu_read_fifo_stream)
    i.mpu_read_mem                           0x08005734   Section        0  inv_mpu.o(i.mpu_read_mem)
    i.mpu_reset_fifo                         0x080057b4   Section        0  inv_mpu.o(i.mpu_reset_fifo)
    i.mpu_run_self_test                      0x0800597c   Section        0  inv_mpu.o(i.mpu_run_self_test)
    i.mpu_set_accel_fsr                      0x08005a98   Section        0  inv_mpu.o(i.mpu_set_accel_fsr)
    i.mpu_set_bypass                         0x08005b1c   Section        0  inv_mpu.o(i.mpu_set_bypass)
    i.mpu_set_dmp_state                      0x08005c68   Section        0  inv_mpu.o(i.mpu_set_dmp_state)
    i.mpu_set_gyro_fsr                       0x08005cf8   Section        0  inv_mpu.o(i.mpu_set_gyro_fsr)
    i.mpu_set_int_latched                    0x08005d80   Section        0  inv_mpu.o(i.mpu_set_int_latched)
    i.mpu_set_lpf                            0x08005dec   Section        0  inv_mpu.o(i.mpu_set_lpf)
    i.mpu_set_sample_rate                    0x08005e70   Section        0  inv_mpu.o(i.mpu_set_sample_rate)
    i.mpu_set_sensors                        0x08005f0c   Section        0  inv_mpu.o(i.mpu_set_sensors)
    i.mpu_write_mem                          0x08005fdc   Section        0  inv_mpu.o(i.mpu_write_mem)
    i.myabs                                  0x0800605c   Section        0  motor.o(i.myabs)
    i.run_self_test                          0x0800606a   Section        0  inv_mpu.o(i.run_self_test)
    i.set_int_enable                         0x08006100   Section        0  inv_mpu.o(i.set_int_enable)
    set_int_enable                           0x08006101   Thumb Code   138  inv_mpu.o(i.set_int_enable)
    i.sqrt                                   0x08006190   Section        0  sqrt.o(i.sqrt)
    i.uart2_init                             0x080061dc   Section        0  usart2.o(i.uart2_init)
    i.uart_init                              0x08006284   Section        0  usart.o(i.uart_init)
    i.velocity                               0x08006324   Section        0  control.o(i.velocity)
    x$fpl$d2f                                0x0800644c   Section       98  d2f.o(x$fpl$d2f)
    x$fpl$dadd                               0x080064b0   Section      336  daddsub_clz.o(x$fpl$dadd)
    _dadd1                                   0x080064c1   Thumb Code     0  daddsub_clz.o(x$fpl$dadd)
    x$fpl$dcheck1                            0x08006600   Section       16  dcheck1.o(x$fpl$dcheck1)
    x$fpl$dcmpinf                            0x08006610   Section       24  dcmpi.o(x$fpl$dcmpinf)
    x$fpl$ddiv                               0x08006628   Section      688  ddiv.o(x$fpl$ddiv)
    ddiv_entry                               0x0800662f   Thumb Code     0  ddiv.o(x$fpl$ddiv)
    x$fpl$deqf                               0x080068d8   Section      120  deqf.o(x$fpl$deqf)
    x$fpl$dmul                               0x08006950   Section      340  dmul.o(x$fpl$dmul)
    x$fpl$dnaninf                            0x08006aa4   Section      156  dnaninf.o(x$fpl$dnaninf)
    x$fpl$dretinf                            0x08006b40   Section       12  dretinf.o(x$fpl$dretinf)
    x$fpl$drsb                               0x08006b4c   Section       22  daddsub_clz.o(x$fpl$drsb)
    x$fpl$dsqrt                              0x08006b64   Section      460  dsqrt_noumaal.o(x$fpl$dsqrt)
    x$fpl$dsub                               0x08006d30   Section      468  daddsub_clz.o(x$fpl$dsub)
    _dsub1                                   0x08006d41   Thumb Code     0  daddsub_clz.o(x$fpl$dsub)
    x$fpl$f2d                                0x08006f04   Section       86  f2d.o(x$fpl$f2d)
    x$fpl$fadd                               0x08006f5c   Section      196  faddsub_clz.o(x$fpl$fadd)
    _fadd1                                   0x08006f6b   Thumb Code     0  faddsub_clz.o(x$fpl$fadd)
    x$fpl$fcmpinf                            0x08007020   Section       24  fcmpi.o(x$fpl$fcmpinf)
    x$fpl$fdiv                               0x08007038   Section      388  fdiv.o(x$fpl$fdiv)
    _fdiv1                                   0x08007039   Thumb Code     0  fdiv.o(x$fpl$fdiv)
    x$fpl$feqf                               0x080071bc   Section      104  feqf.o(x$fpl$feqf)
    x$fpl$ffix                               0x08007224   Section       54  ffix.o(x$fpl$ffix)
    x$fpl$ffixu                              0x0800725c   Section       62  ffixu.o(x$fpl$ffixu)
    x$fpl$fflt                               0x0800729c   Section       48  fflt_clz.o(x$fpl$fflt)
    x$fpl$ffltu                              0x080072cc   Section       38  fflt_clz.o(x$fpl$ffltu)
    x$fpl$fleqf                              0x080072f4   Section      104  fleqf.o(x$fpl$fleqf)
    x$fpl$fmul                               0x0800735c   Section      258  fmul.o(x$fpl$fmul)
    x$fpl$fnaninf                            0x0800745e   Section      140  fnaninf.o(x$fpl$fnaninf)
    x$fpl$fretinf                            0x080074ea   Section       10  fretinf.o(x$fpl$fretinf)
    x$fpl$frleqf                             0x080074f4   Section       98  frleqf.o(x$fpl$frleqf)
    x$fpl$frsb                               0x08007556   Section       20  faddsub_clz.o(x$fpl$frsb)
    x$fpl$fsub                               0x0800756c   Section      234  faddsub_clz.o(x$fpl$fsub)
    _fsub1                                   0x0800757b   Thumb Code     0  faddsub_clz.o(x$fpl$fsub)
    x$fpl$retnan                             0x08007656   Section      100  retnan.o(x$fpl$retnan)
    x$fpl$scalbn                             0x080076ba   Section       92  scalbn.o(x$fpl$scalbn)
    x$fpl$trapveneer                         0x08007716   Section       48  trapv.o(x$fpl$trapveneer)
    x$fpl$usenofp                            0x08007746   Section        0  usenofp.o(x$fpl$usenofp)
    .constdata                               0x08007748   Section       80  inv_mpu.o(.constdata)
    .constdata                               0x08007798   Section     3062  inv_mpu_dmp_motion_driver.o(.constdata)
    dmp_memory                               0x08007798   Data        3062  inv_mpu_dmp_motion_driver.o(.constdata)
    .constdata                               0x08008390   Section       28  timer.o(.constdata)
    .constdata                               0x080083ac   Section     1520  oled.o(.constdata)
    .constdata                               0x0800899c   Section       17  __printf_flags_wp.o(.constdata)
    maptable                                 0x0800899c   Data          17  __printf_flags_wp.o(.constdata)
    .constdata                               0x080089b0   Section       80  asin.o(.constdata)
    pS                                       0x080089b0   Data          48  asin.o(.constdata)
    qS                                       0x080089e0   Data          32  asin.o(.constdata)
    .constdata                               0x08008a00   Section      152  atan.o(.constdata)
    atanhi                                   0x08008a00   Data          32  atan.o(.constdata)
    atanlo                                   0x08008a20   Data          32  atan.o(.constdata)
    aTodd                                    0x08008a40   Data          40  atan.o(.constdata)
    aTeven                                   0x08008a68   Data          48  atan.o(.constdata)
    .constdata                               0x08008a98   Section        8  qnan.o(.constdata)
    .conststring                             0x08008aa0   Section       77  inv_mpu.o(.conststring)
    .data                                    0x20000000   Section        4  delay.o(.data)
    fac_us                                   0x20000000   Data           1  delay.o(.data)
    fac_ms                                   0x20000002   Data           2  delay.o(.data)
    .data                                    0x20000004   Section        6  usart.o(.data)
    .data                                    0x2000000a   Section       20  stm32f10x_rcc.o(.data)
    APBAHBPrescTable                         0x2000000a   Data          16  stm32f10x_rcc.o(.data)
    ADCPrescTable                            0x2000001a   Data           4  stm32f10x_rcc.o(.data)
    .data                                    0x20000020   Section       20  system_stm32f10x.o(.data)
    .data                                    0x20000034   Section       53  inv_mpu.o(.data)
    st                                       0x20000034   Data          44  inv_mpu.o(.data)
    gyro_orientation                         0x20000060   Data           9  inv_mpu.o(.data)
    .data                                    0x2000006c   Section      152  control.o(.data)
    Velocity                                 0x200000f4   Data           4  control.o(.data)
    Encoder_Least                            0x200000f8   Data           4  control.o(.data)
    Encoder                                  0x200000fc   Data           4  control.o(.data)
    Encoder_Integral                         0x20000100   Data           4  control.o(.data)
    .data                                    0x20000104   Section        8  encoder.o(.data)
    .data                                    0x2000010c   Section       16  timer.o(.data)
    i                                        0x20000114   Data           4  timer.o(.data)
    j                                        0x20000118   Data           4  timer.o(.data)
    .data                                    0x2000011c   Section      142  usart2.o(.data)
    temp_speed                               0x200001a4   Data           2  usart2.o(.data)
    temp_led                                 0x200001a6   Data           2  usart2.o(.data)
    temp_xuan                                0x200001a8   Data           2  usart2.o(.data)
    .bss                                     0x200001ac   Section      200  usart.o(.bss)
    .bss                                     0x20000274   Section       16  inv_mpu_dmp_motion_driver.o(.bss)
    dmp                                      0x20000274   Data          16  inv_mpu_dmp_motion_driver.o(.bss)
    .bss                                     0x20000284   Section      128  usart2.o(.bss)
    .bss                                     0x20000304   Section       96  libspace.o(.bss)
    HEAP                                     0x20000368   Section      512  startup_stm32f10x_md.o(HEAP)
    Heap_Mem                                 0x20000368   Data         512  startup_stm32f10x_md.o(HEAP)
    STACK                                    0x20000568   Section     1024  startup_stm32f10x_md.o(STACK)
    Stack_Mem                                0x20000568   Data        1024  startup_stm32f10x_md.o(STACK)
    __initial_sp                             0x20000968   Data           0  startup_stm32f10x_md.o(STACK)

    Global Symbols

    Symbol Name                              Value     Ov Type        Size  Object(Section)

    BuildAttributes$$THM_ISAv4$P$D$K$B$S$PE$A:L22UL41UL21$X:L11$S22US41US21$IEEE1$IW$USESV6$~STKCKD$USESV7$~SHL$OTIME$ROPI$IEEEX$EBA8$UX$STANDARDLIB$REQ8$PRES8$EABIv2 0x00000000   Number         0  anon$$obj.o ABSOLUTE
    __ARM_use_no_argv                        0x00000000   Number         0  main.o ABSOLUTE
    _printf_flags                            0x00000000   Number         0  printf_stubs.o ABSOLUTE
    _printf_return_value                     0x00000000   Number         0  printf_stubs.o ABSOLUTE
    _printf_sizespec                         0x00000000   Number         0  printf_stubs.o ABSOLUTE
    _printf_widthprec                        0x00000000   Number         0  printf_stubs.o ABSOLUTE
    __ARM_exceptions_init                     - Undefined Weak Reference
    __alloca_initialize                       - Undefined Weak Reference
    __arm_fini_                               - Undefined Weak Reference
    __arm_preinit_                            - Undefined Weak Reference
    __cpp_initialize__aeabi_                  - Undefined Weak Reference
    __cxa_finalize                            - Undefined Weak Reference
    __rt_locale                               - Undefined Weak Reference
    __sigvec_lookup                           - Undefined Weak Reference
    _atexit_init                              - Undefined Weak Reference
    _call_atexit_fns                          - Undefined Weak Reference
    _clock_init                               - Undefined Weak Reference
    _fp_trap_init                             - Undefined Weak Reference
    _fp_trap_shutdown                         - Undefined Weak Reference
    _get_lc_collate                           - Undefined Weak Reference
    _get_lc_ctype                             - Undefined Weak Reference
    _get_lc_monetary                          - Undefined Weak Reference
    _get_lc_numeric                           - Undefined Weak Reference
    _get_lc_time                              - Undefined Weak Reference
    _getenv_init                              - Undefined Weak Reference
    _handle_redirection                       - Undefined Weak Reference
    _init_alloc                               - Undefined Weak Reference
    _init_user_alloc                          - Undefined Weak Reference
    _initio                                   - Undefined Weak Reference
    _mutex_acquire                            - Undefined Weak Reference
    _mutex_release                            - Undefined Weak Reference
    _printf_truncate_signed                   - Undefined Weak Reference
    _printf_truncate_unsigned                 - Undefined Weak Reference
    _rand_init                                - Undefined Weak Reference
    _signal_finish                            - Undefined Weak Reference
    _signal_init                              - Undefined Weak Reference
    _terminate_alloc                          - Undefined Weak Reference
    _terminate_user_alloc                     - Undefined Weak Reference
    _terminateio                              - Undefined Weak Reference
    __Vectors_Size                           0x000000ec   Number         0  startup_stm32f10x_md.o ABSOLUTE
    __Vectors                                0x08000000   Data           4  startup_stm32f10x_md.o(RESET)
    __Vectors_End                            0x080000ec   Data           0  startup_stm32f10x_md.o(RESET)
    __main                                   0x080000ed   Thumb Code     8  __main.o(!!!main)
    __scatterload                            0x080000f5   Thumb Code     0  __scatter.o(!!!scatter)
    __scatterload_rt2                        0x080000f5   Thumb Code    44  __scatter.o(!!!scatter)
    __scatterload_rt2_thumb_only             0x080000f5   Thumb Code     0  __scatter.o(!!!scatter)
    __scatterload_null                       0x08000103   Thumb Code     0  __scatter.o(!!!scatter)
    __decompress                             0x08000129   Thumb Code    90  __dczerorl2.o(!!dczerorl2)
    __decompress1                            0x08000129   Thumb Code     0  __dczerorl2.o(!!dczerorl2)
    __scatterload_zeroinit                   0x08000185   Thumb Code    28  __scatter_zi.o(!!handler_zi)
    _printf_d                                0x080001a1   Thumb Code     0  _printf_d.o(.ARM.Collect$$_printf_percent$$00000009)
    _printf_percent                          0x080001a1   Thumb Code     0  _printf_percent.o(.ARM.Collect$$_printf_percent$$00000000)
    _printf_percent_end                      0x080001a7   Thumb Code     0  _printf_percent_end.o(.ARM.Collect$$_printf_percent$$00000017)
    __rt_lib_init                            0x080001ab   Thumb Code     0  libinit.o(.ARM.Collect$$libinit$$00000000)
    __rt_lib_init_alloca_1                   0x080001ad   Thumb Code     0  libinit2.o(.ARM.Collect$$libinit$$0000002E)
    __rt_lib_init_argv_1                     0x080001ad   Thumb Code     0  libinit2.o(.ARM.Collect$$libinit$$0000002C)
    __rt_lib_init_atexit_1                   0x080001ad   Thumb Code     0  libinit2.o(.ARM.Collect$$libinit$$0000001B)
    __rt_lib_init_clock_1                    0x080001ad   Thumb Code     0  libinit2.o(.ARM.Collect$$libinit$$00000021)
    __rt_lib_init_cpp_1                      0x080001ad   Thumb Code     0  libinit2.o(.ARM.Collect$$libinit$$00000032)
    __rt_lib_init_exceptions_1               0x080001ad   Thumb Code     0  libinit2.o(.ARM.Collect$$libinit$$00000030)
    __rt_lib_init_fp_1                       0x080001ad   Thumb Code     0  libinit2.o(.ARM.Collect$$libinit$$00000002)
    __rt_lib_init_fp_trap_1                  0x080001ad   Thumb Code     0  libinit2.o(.ARM.Collect$$libinit$$0000001F)
    __rt_lib_init_getenv_1                   0x080001ad   Thumb Code     0  libinit2.o(.ARM.Collect$$libinit$$00000023)
    __rt_lib_init_heap_1                     0x080001ad   Thumb Code     0  libinit2.o(.ARM.Collect$$libinit$$0000000A)
    __rt_lib_init_lc_collate_1               0x080001ad   Thumb Code     0  libinit2.o(.ARM.Collect$$libinit$$00000011)
    __rt_lib_init_lc_ctype_1                 0x080001ad   Thumb Code     0  libinit2.o(.ARM.Collect$$libinit$$00000013)
    __rt_lib_init_lc_monetary_1              0x080001ad   Thumb Code     0  libinit2.o(.ARM.Collect$$libinit$$00000015)
    __rt_lib_init_lc_numeric_1               0x080001ad   Thumb Code     0  libinit2.o(.ARM.Collect$$libinit$$00000017)
    __rt_lib_init_lc_time_1                  0x080001ad   Thumb Code     0  libinit2.o(.ARM.Collect$$libinit$$00000019)
    __rt_lib_init_preinit_1                  0x080001ad   Thumb Code     0  libinit2.o(.ARM.Collect$$libinit$$00000004)
    __rt_lib_init_rand_1                     0x080001ad   Thumb Code     0  libinit2.o(.ARM.Collect$$libinit$$0000000E)
    __rt_lib_init_return                     0x080001ad   Thumb Code     0  libinit2.o(.ARM.Collect$$libinit$$00000033)
    __rt_lib_init_signal_1                   0x080001ad   Thumb Code     0  libinit2.o(.ARM.Collect$$libinit$$0000001D)
    __rt_lib_init_stdio_1                    0x080001ad   Thumb Code     0  libinit2.o(.ARM.Collect$$libinit$$00000025)
    __rt_lib_init_user_alloc_1               0x080001ad   Thumb Code     0  libinit2.o(.ARM.Collect$$libinit$$0000000C)
    __rt_lib_shutdown                        0x080001af   Thumb Code     0  libshutdown.o(.ARM.Collect$$libshutdown$$00000000)
    __rt_lib_shutdown_cpp_1                  0x080001b1   Thumb Code     0  libshutdown2.o(.ARM.Collect$$libshutdown$$00000004)
    __rt_lib_shutdown_fini_1                 0x080001b1   Thumb Code     0  libshutdown2.o(.ARM.Collect$$libshutdown$$00000002)
    __rt_lib_shutdown_fp_trap_1              0x080001b1   Thumb Code     0  libshutdown2.o(.ARM.Collect$$libshutdown$$00000009)
    __rt_lib_shutdown_heap_1                 0x080001b1   Thumb Code     0  libshutdown2.o(.ARM.Collect$$libshutdown$$00000011)
    __rt_lib_shutdown_return                 0x080001b1   Thumb Code     0  libshutdown2.o(.ARM.Collect$$libshutdown$$00000012)
    __rt_lib_shutdown_signal_1               0x080001b1   Thumb Code     0  libshutdown2.o(.ARM.Collect$$libshutdown$$0000000C)
    __rt_lib_shutdown_stdio_1                0x080001b1   Thumb Code     0  libshutdown2.o(.ARM.Collect$$libshutdown$$00000006)
    __rt_lib_shutdown_user_alloc_1           0x080001b1   Thumb Code     0  libshutdown2.o(.ARM.Collect$$libshutdown$$0000000E)
    __rt_entry                               0x080001b3   Thumb Code     0  __rtentry.o(.ARM.Collect$$rtentry$$00000000)
    __rt_entry_presh_1                       0x080001b3   Thumb Code     0  __rtentry2.o(.ARM.Collect$$rtentry$$00000002)
    __rt_entry_sh                            0x080001b3   Thumb Code     0  __rtentry4.o(.ARM.Collect$$rtentry$$00000004)
    __rt_entry_li                            0x080001b9   Thumb Code     0  __rtentry2.o(.ARM.Collect$$rtentry$$0000000A)
    __rt_entry_postsh_1                      0x080001b9   Thumb Code     0  __rtentry2.o(.ARM.Collect$$rtentry$$00000009)
    __rt_entry_main                          0x080001bd   Thumb Code     0  __rtentry2.o(.ARM.Collect$$rtentry$$0000000D)
    __rt_entry_postli_1                      0x080001bd   Thumb Code     0  __rtentry2.o(.ARM.Collect$$rtentry$$0000000C)
    __rt_exit                                0x080001c5   Thumb Code     0  rtexit.o(.ARM.Collect$$rtexit$$00000000)
    __rt_exit_ls                             0x080001c7   Thumb Code     0  rtexit2.o(.ARM.Collect$$rtexit$$00000003)
    __rt_exit_prels_1                        0x080001c7   Thumb Code     0  rtexit2.o(.ARM.Collect$$rtexit$$00000002)
    __rt_exit_exit                           0x080001cb   Thumb Code     0  rtexit2.o(.ARM.Collect$$rtexit$$00000004)
    Reset_Handler                            0x080001d1   Thumb Code     8  startup_stm32f10x_md.o(.text)
    ADC1_2_IRQHandler                        0x080001eb   Thumb Code     0  startup_stm32f10x_md.o(.text)
    CAN1_RX1_IRQHandler                      0x080001eb   Thumb Code     0  startup_stm32f10x_md.o(.text)
    CAN1_SCE_IRQHandler                      0x080001eb   Thumb Code     0  startup_stm32f10x_md.o(.text)
    DMA1_Channel1_IRQHandler                 0x080001eb   Thumb Code     0  startup_stm32f10x_md.o(.text)
    DMA1_Channel2_IRQHandler                 0x080001eb   Thumb Code     0  startup_stm32f10x_md.o(.text)
    DMA1_Channel3_IRQHandler                 0x080001eb   Thumb Code     0  startup_stm32f10x_md.o(.text)
    DMA1_Channel4_IRQHandler                 0x080001eb   Thumb Code     0  startup_stm32f10x_md.o(.text)
    DMA1_Channel5_IRQHandler                 0x080001eb   Thumb Code     0  startup_stm32f10x_md.o(.text)
    DMA1_Channel6_IRQHandler                 0x080001eb   Thumb Code     0  startup_stm32f10x_md.o(.text)
    DMA1_Channel7_IRQHandler                 0x080001eb   Thumb Code     0  startup_stm32f10x_md.o(.text)
    EXTI0_IRQHandler                         0x080001eb   Thumb Code     0  startup_stm32f10x_md.o(.text)
    EXTI15_10_IRQHandler                     0x080001eb   Thumb Code     0  startup_stm32f10x_md.o(.text)
    EXTI1_IRQHandler                         0x080001eb   Thumb Code     0  startup_stm32f10x_md.o(.text)
    EXTI2_IRQHandler                         0x080001eb   Thumb Code     0  startup_stm32f10x_md.o(.text)
    EXTI3_IRQHandler                         0x080001eb   Thumb Code     0  startup_stm32f10x_md.o(.text)
    EXTI4_IRQHandler                         0x080001eb   Thumb Code     0  startup_stm32f10x_md.o(.text)
    FLASH_IRQHandler                         0x080001eb   Thumb Code     0  startup_stm32f10x_md.o(.text)
    I2C1_ER_IRQHandler                       0x080001eb   Thumb Code     0  startup_stm32f10x_md.o(.text)
    I2C1_EV_IRQHandler                       0x080001eb   Thumb Code     0  startup_stm32f10x_md.o(.text)
    I2C2_ER_IRQHandler                       0x080001eb   Thumb Code     0  startup_stm32f10x_md.o(.text)
    I2C2_EV_IRQHandler                       0x080001eb   Thumb Code     0  startup_stm32f10x_md.o(.text)
    PVD_IRQHandler                           0x080001eb   Thumb Code     0  startup_stm32f10x_md.o(.text)
    RCC_IRQHandler                           0x080001eb   Thumb Code     0  startup_stm32f10x_md.o(.text)
    RTCAlarm_IRQHandler                      0x080001eb   Thumb Code     0  startup_stm32f10x_md.o(.text)
    RTC_IRQHandler                           0x080001eb   Thumb Code     0  startup_stm32f10x_md.o(.text)
    SPI1_IRQHandler                          0x080001eb   Thumb Code     0  startup_stm32f10x_md.o(.text)
    SPI2_IRQHandler                          0x080001eb   Thumb Code     0  startup_stm32f10x_md.o(.text)
    TAMPER_IRQHandler                        0x080001eb   Thumb Code     0  startup_stm32f10x_md.o(.text)
    TIM1_BRK_IRQHandler                      0x080001eb   Thumb Code     0  startup_stm32f10x_md.o(.text)
    TIM1_CC_IRQHandler                       0x080001eb   Thumb Code     0  startup_stm32f10x_md.o(.text)
    TIM1_TRG_COM_IRQHandler                  0x080001eb   Thumb Code     0  startup_stm32f10x_md.o(.text)
    TIM1_UP_IRQHandler                       0x080001eb   Thumb Code     0  startup_stm32f10x_md.o(.text)
    USART3_IRQHandler                        0x080001eb   Thumb Code     0  startup_stm32f10x_md.o(.text)
    USBWakeUp_IRQHandler                     0x080001eb   Thumb Code     0  startup_stm32f10x_md.o(.text)
    USB_HP_CAN1_TX_IRQHandler                0x080001eb   Thumb Code     0  startup_stm32f10x_md.o(.text)
    USB_LP_CAN1_RX0_IRQHandler               0x080001eb   Thumb Code     0  startup_stm32f10x_md.o(.text)
    WWDG_IRQHandler                          0x080001eb   Thumb Code     0  startup_stm32f10x_md.o(.text)
    __user_initial_stackheap                 0x080001ed   Thumb Code     0  startup_stm32f10x_md.o(.text)
    __use_no_semihosting                     0x08000211   Thumb Code     2  use_no_semi_2.o(.text)
    __aeabi_ldivmod                          0x08000213   Thumb Code     0  llsdiv.o(.text)
    _ll_sdiv                                 0x08000213   Thumb Code    72  llsdiv.o(.text)
    __2printf                                0x0800025d   Thumb Code    20  noretval__2printf.o(.text)
    _printf_int_dec                          0x08000275   Thumb Code   104  _printf_dec.o(.text)
    __printf                                 0x080002ed   Thumb Code   308  __printf_flags_wp.o(.text)
    memcmp                                   0x08000425   Thumb Code    88  memcmp.o(.text)
    __aeabi_memset                           0x0800047d   Thumb Code    16  aeabi_memset.o(.text)
    __use_two_region_memory                  0x0800048d   Thumb Code     2  heapauxi.o(.text)
    __rt_heap_escrow$2region                 0x0800048f   Thumb Code     2  heapauxi.o(.text)
    __rt_heap_expand$2region                 0x08000491   Thumb Code     2  heapauxi.o(.text)
    __I$use$semihosting                      0x08000493   Thumb Code     0  use_no_semi.o(.text)
    __use_no_semihosting_swi                 0x08000493   Thumb Code     2  use_no_semi.o(.text)
    __aeabi_uldivmod                         0x08000495   Thumb Code     0  lludivv7m.o(.text)
    _ll_udiv                                 0x08000495   Thumb Code   238  lludivv7m.o(.text)
    __read_errno                             0x08000583   Thumb Code    10  _rserrno.o(.text)
    __set_errno                              0x0800058d   Thumb Code    12  _rserrno.o(.text)
    _printf_int_common                       0x08000599   Thumb Code   178  _printf_intcommon.o(.text)
    _printf_char_file                        0x0800064d   Thumb Code    32  _printf_char_file.o(.text)
    __aeabi_memclr                           0x08000671   Thumb Code     0  rt_memclr.o(.text)
    __rt_memclr                              0x08000671   Thumb Code    68  rt_memclr.o(.text)
    _memset                                  0x08000675   Thumb Code     0  rt_memclr.o(.text)
    __aeabi_errno_addr                       0x080006b5   Thumb Code     8  rt_errno_addr_intlibspace.o(.text)
    __errno$intlibspace                      0x080006b5   Thumb Code     0  rt_errno_addr_intlibspace.o(.text)
    __rt_errno_addr$intlibspace              0x080006b5   Thumb Code     0  rt_errno_addr_intlibspace.o(.text)
    _printf_char_common                      0x080006c7   Thumb Code    32  _printf_char_common.o(.text)
    ferror                                   0x080006ed   Thumb Code     8  ferror.o(.text)
    __aeabi_memclr4                          0x080006f5   Thumb Code     0  rt_memclr_w.o(.text)
    __aeabi_memclr8                          0x080006f5   Thumb Code     0  rt_memclr_w.o(.text)
    __rt_memclr_w                            0x080006f5   Thumb Code    78  rt_memclr_w.o(.text)
    _memset_w                                0x080006f9   Thumb Code     0  rt_memclr_w.o(.text)
    __user_libspace                          0x08000745   Thumb Code     8  libspace.o(.text)
    __user_perproc_libspace                  0x08000745   Thumb Code     0  libspace.o(.text)
    __user_perthread_libspace                0x08000745   Thumb Code     0  libspace.o(.text)
    __user_setup_stackheap                   0x0800074d   Thumb Code    74  sys_stackheap_outer.o(.text)
    exit                                     0x08000797   Thumb Code    18  exit.o(.text)
    BusFault_Handler                         0x080007a9   Thumb Code     4  stm32f10x_it.o(i.BusFault_Handler)
    DebugMon_Handler                         0x080007ad   Thumb Code     2  stm32f10x_it.o(i.DebugMon_Handler)
    Direction_Mode                           0x080007b1   Thumb Code   568  control.o(i.Direction_Mode)
    EXTI9_5_IRQHandler                       0x08000a01   Thumb Code  1240  control.o(i.EXTI9_5_IRQHandler)
    EXTI_Init                                0x08000ee5   Thumb Code   142  stm32f10x_exti.o(i.EXTI_Init)
    Encoder_Init_TIM2                        0x08000f79   Thumb Code   154  encoder.o(i.Encoder_Init_TIM2)
    Encoder_Init_TIM3                        0x08001019   Thumb Code   148  encoder.o(i.Encoder_Init_TIM3)
    GPIO_EXTILineConfig                      0x080010b5   Thumb Code    60  stm32f10x_gpio.o(i.GPIO_EXTILineConfig)
    GPIO_Init                                0x080010f5   Thumb Code   278  stm32f10x_gpio.o(i.GPIO_Init)
    GPIO_PinRemapConfig                      0x0800120d   Thumb Code   138  stm32f10x_gpio.o(i.GPIO_PinRemapConfig)
    GPIO_ReadInputDataBit                    0x0800129d   Thumb Code    18  stm32f10x_gpio.o(i.GPIO_ReadInputDataBit)
    GPIO_SetBits                             0x080012af   Thumb Code     4  stm32f10x_gpio.o(i.GPIO_SetBits)
    GPIO_WriteBit                            0x080012b3   Thumb Code    10  stm32f10x_gpio.o(i.GPIO_WriteBit)
    HardFault_Handler                        0x080012bd   Thumb Code     4  stm32f10x_it.o(i.HardFault_Handler)
    MPU6050_EXTI_Init                        0x080012c1   Thumb Code    76  mpu_exti.o(i.MPU6050_EXTI_Init)
    MPU_Get_Accelerometer                    0x08001311   Thumb Code    80  mpu6050.o(i.MPU_Get_Accelerometer)
    MPU_Get_Gyroscope                        0x08001361   Thumb Code    80  mpu6050.o(i.MPU_Get_Gyroscope)
    MPU_IIC_Ack                              0x080013b1   Thumb Code    62  mpuiic.o(i.MPU_IIC_Ack)
    MPU_IIC_Delay                            0x080013fd   Thumb Code    10  mpuiic.o(i.MPU_IIC_Delay)
    MPU_IIC_Init                             0x08001409   Thumb Code    62  mpuiic.o(i.MPU_IIC_Init)
    MPU_IIC_NAck                             0x08001451   Thumb Code    62  mpuiic.o(i.MPU_IIC_NAck)
    MPU_IIC_Read_Byte                        0x0800149d   Thumb Code    94  mpuiic.o(i.MPU_IIC_Read_Byte)
    MPU_IIC_Send_Byte                        0x08001509   Thumb Code    80  mpuiic.o(i.MPU_IIC_Send_Byte)
    MPU_IIC_Start                            0x08001565   Thumb Code    60  mpuiic.o(i.MPU_IIC_Start)
    MPU_IIC_Stop                             0x080015ad   Thumb Code    58  mpuiic.o(i.MPU_IIC_Stop)
    MPU_IIC_Wait_Ack                         0x080015f5   Thumb Code    86  mpuiic.o(i.MPU_IIC_Wait_Ack)
    MPU_Init                                 0x08001659   Thumb Code   122  mpu6050.o(i.MPU_Init)
    MPU_Read_Byte                            0x080016d3   Thumb Code    58  mpu6050.o(i.MPU_Read_Byte)
    MPU_Read_Len                             0x0800170d   Thumb Code   116  mpu6050.o(i.MPU_Read_Len)
    MPU_Set_Accel_Fsr                        0x08001781   Thumb Code    16  mpu6050.o(i.MPU_Set_Accel_Fsr)
    MPU_Set_Gyro_Fsr                         0x08001791   Thumb Code    16  mpu6050.o(i.MPU_Set_Gyro_Fsr)
    MPU_Set_LPF                              0x080017a1   Thumb Code    58  mpu6050.o(i.MPU_Set_LPF)
    MPU_Set_Rate                             0x080017db   Thumb Code    58  mpu6050.o(i.MPU_Set_Rate)
    MPU_Write_Byte                           0x08001815   Thumb Code    68  mpu6050.o(i.MPU_Write_Byte)
    MPU_Write_Len                            0x08001859   Thumb Code    96  mpu6050.o(i.MPU_Write_Len)
    MemManage_Handler                        0x080018b9   Thumb Code     4  stm32f10x_it.o(i.MemManage_Handler)
    Motor_Init                               0x080018bd   Thumb Code    44  motor.o(i.Motor_Init)
    NMI_Handler                              0x080018ed   Thumb Code     2  stm32f10x_it.o(i.NMI_Handler)
    NVIC_Configuration                       0x080018ef   Thumb Code    94  sys.o(i.NVIC_Configuration)
    NVIC_Init                                0x0800194d   Thumb Code   100  misc.o(i.NVIC_Init)
    NVIC_PriorityGroupConfig                 0x080019bd   Thumb Code    10  misc.o(i.NVIC_PriorityGroupConfig)
    OLED_Clear                               0x080019d1   Thumb Code    42  oled.o(i.OLED_Clear)
    OLED_DrawBMP                             0x080019fb   Thumb Code   116  oled.o(i.OLED_DrawBMP)
    OLED_I2C_Init                            0x08001a71   Thumb Code    76  oled.o(i.OLED_I2C_Init)
    OLED_I2C_SendByte                        0x08001ac1   Thumb Code    80  oled.o(i.OLED_I2C_SendByte)
    OLED_I2C_Start                           0x08001b15   Thumb Code    48  oled.o(i.OLED_I2C_Start)
    OLED_I2C_Stop                            0x08001b49   Thumb Code    36  oled.o(i.OLED_I2C_Stop)
    OLED_Init                                0x08001b71   Thumb Code   174  oled.o(i.OLED_Init)
    OLED_Pow                                 0x08001c1f   Thumb Code    20  oled.o(i.OLED_Pow)
    OLED_SetCursor                           0x08001c33   Thumb Code    34  oled.o(i.OLED_SetCursor)
    OLED_ShowChar                            0x08001c55   Thumb Code   110  oled.o(i.OLED_ShowChar)
    OLED_ShowNum                             0x08001cc9   Thumb Code    68  oled.o(i.OLED_ShowNum)
    OLED_ShowSignedNum                       0x08001d0d   Thumb Code   102  oled.o(i.OLED_ShowSignedNum)
    OLED_ShowString                          0x08001d73   Thumb Code    40  oled.o(i.OLED_ShowString)
    OLED_WriteCommand                        0x08001d9b   Thumb Code    32  oled.o(i.OLED_WriteCommand)
    OLED_WriteData                           0x08001dbb   Thumb Code    32  oled.o(i.OLED_WriteData)
    PWM_Init                                 0x08001ddd   Thumb Code   190  pwm.o(i.PWM_Init)
    PendSV_Handler                           0x08001ea5   Thumb Code     2  stm32f10x_it.o(i.PendSV_Handler)
    RCC_APB1PeriphClockCmd                   0x08001ea9   Thumb Code    26  stm32f10x_rcc.o(i.RCC_APB1PeriphClockCmd)
    RCC_APB2PeriphClockCmd                   0x08001ec9   Thumb Code    26  stm32f10x_rcc.o(i.RCC_APB2PeriphClockCmd)
    RCC_GetClocksFreq                        0x08001ee9   Thumb Code   192  stm32f10x_rcc.o(i.RCC_GetClocksFreq)
    Read_Encoder                             0x08001fbd   Thumb Code    70  encoder.o(i.Read_Encoder)
    SVC_Handler                              0x0800200d   Thumb Code     2  stm32f10x_it.o(i.SVC_Handler)
    SYS_Init                                 0x08002011   Thumb Code    90  sys.o(i.SYS_Init)
    Set_MaxSpeed                             0x0800218d   Thumb Code    90  control.o(i.Set_MaxSpeed)
    Set_Pwm                                  0x080021f1   Thumb Code   102  motor.o(i.Set_Pwm)
    SysTick_CLKSourceConfig                  0x08002265   Thumb Code    40  misc.o(i.SysTick_CLKSourceConfig)
    SysTick_Handler                          0x0800228d   Thumb Code     2  stm32f10x_it.o(i.SysTick_Handler)
    SystemInit                               0x08002291   Thumb Code    78  system_stm32f10x.o(i.SystemInit)
    TIM2_IRQHandler                          0x08002531   Thumb Code    24  encoder.o(i.TIM2_IRQHandler)
    TIM3_IRQHandler                          0x08002549   Thumb Code    18  encoder.o(i.TIM3_IRQHandler)
    TIM4_IRQHandler                          0x08002561   Thumb Code   130  timer.o(i.TIM4_IRQHandler)
    TIM4_Int_Init                            0x080025fd   Thumb Code    60  timer.o(i.TIM4_Int_Init)
    TIM_ARRPreloadConfig                     0x0800263d   Thumb Code    24  stm32f10x_tim.o(i.TIM_ARRPreloadConfig)
    TIM_ClearFlag                            0x08002655   Thumb Code     6  stm32f10x_tim.o(i.TIM_ClearFlag)
    TIM_ClearITPendingBit                    0x0800265b   Thumb Code     6  stm32f10x_tim.o(i.TIM_ClearITPendingBit)
    TIM_Cmd                                  0x08002661   Thumb Code    24  stm32f10x_tim.o(i.TIM_Cmd)
    TIM_CtrlPWMOutputs                       0x08002679   Thumb Code    30  stm32f10x_tim.o(i.TIM_CtrlPWMOutputs)
    TIM_EncoderInterfaceConfig               0x08002697   Thumb Code    66  stm32f10x_tim.o(i.TIM_EncoderInterfaceConfig)
    TIM_GetITStatus                          0x080026d9   Thumb Code    34  stm32f10x_tim.o(i.TIM_GetITStatus)
    TIM_ICInit                               0x080026fd   Thumb Code   150  stm32f10x_tim.o(i.TIM_ICInit)
    TIM_ICStructInit                         0x080027a9   Thumb Code    18  stm32f10x_tim.o(i.TIM_ICStructInit)
    TIM_ITConfig                             0x080027bb   Thumb Code    18  stm32f10x_tim.o(i.TIM_ITConfig)
    TIM_OC1Init                              0x080027cd   Thumb Code   132  stm32f10x_tim.o(i.TIM_OC1Init)
    TIM_OC1PreloadConfig                     0x08002865   Thumb Code    18  stm32f10x_tim.o(i.TIM_OC1PreloadConfig)
    TIM_OC4Init                              0x08002879   Thumb Code   114  stm32f10x_tim.o(i.TIM_OC4Init)
    TIM_OC4PreloadConfig                     0x080028f5   Thumb Code    26  stm32f10x_tim.o(i.TIM_OC4PreloadConfig)
    TIM_SetCounter                           0x0800290f   Thumb Code     4  stm32f10x_tim.o(i.TIM_SetCounter)
    TIM_SetIC1Prescaler                      0x08002913   Thumb Code    18  stm32f10x_tim.o(i.TIM_SetIC1Prescaler)
    TIM_SetIC2Prescaler                      0x08002925   Thumb Code    26  stm32f10x_tim.o(i.TIM_SetIC2Prescaler)
    TIM_SetIC3Prescaler                      0x0800293f   Thumb Code    18  stm32f10x_tim.o(i.TIM_SetIC3Prescaler)
    TIM_SetIC4Prescaler                      0x08002951   Thumb Code    26  stm32f10x_tim.o(i.TIM_SetIC4Prescaler)
    TIM_TimeBaseInit                         0x0800296d   Thumb Code   122  stm32f10x_tim.o(i.TIM_TimeBaseInit)
    TIM_TimeBaseStructInit                   0x08002a11   Thumb Code    18  stm32f10x_tim.o(i.TIM_TimeBaseStructInit)
    Turn                                     0x08002a25   Thumb Code   516  control.o(i.Turn)
    USART1_IRQHandler                        0x08002c55   Thumb Code   122  usart.o(i.USART1_IRQHandler)
    USART2_IRQHandler                        0x08002cdd   Thumb Code   638  usart2.o(i.USART2_IRQHandler)
    USART_Cmd                                0x08002f75   Thumb Code    24  stm32f10x_usart.o(i.USART_Cmd)
    USART_GetITStatus                        0x08002f8d   Thumb Code    84  stm32f10x_usart.o(i.USART_GetITStatus)
    USART_ITConfig                           0x08002fe1   Thumb Code    74  stm32f10x_usart.o(i.USART_ITConfig)
    USART_Init                               0x0800302d   Thumb Code   210  stm32f10x_usart.o(i.USART_Init)
    USART_ReceiveData                        0x08003105   Thumb Code    10  stm32f10x_usart.o(i.USART_ReceiveData)
    UsageFault_Handler                       0x0800310f   Thumb Code     4  stm32f10x_it.o(i.UsageFault_Handler)
    Vertical                                 0x08003115   Thumb Code    64  control.o(i.Vertical)
    Xianfu_Pwm                               0x0800315d   Thumb Code    70  motor.o(i.Xianfu_Pwm)
    __ARM_fpclassify                         0x080031b1   Thumb Code    40  fpclassify.o(i.__ARM_fpclassify)
    __kernel_poly                            0x080031d9   Thumb Code   170  poly.o(i.__kernel_poly)
    __mathlib_dbl_infnan                     0x08003283   Thumb Code     6  dunder.o(i.__mathlib_dbl_infnan)
    __mathlib_dbl_infnan2                    0x08003289   Thumb Code     4  dunder.o(i.__mathlib_dbl_infnan2)
    __mathlib_dbl_invalid                    0x0800328d   Thumb Code    12  dunder.o(i.__mathlib_dbl_invalid)
    __mathlib_dbl_underflow                  0x08003299   Thumb Code    10  dunder.o(i.__mathlib_dbl_underflow)
    _is_digit                                0x080032a9   Thumb Code    14  __printf_wp.o(i._is_digit)
    _sys_exit                                0x080032b7   Thumb Code     4  usart.o(i._sys_exit)
    asin                                     0x08003365   Thumb Code   572  asin.o(i.asin)
    atan                                     0x080035d5   Thumb Code   474  atan.o(i.atan)
    atan2                                    0x080037f5   Thumb Code   374  atan2.o(i.atan2)
    delay_init                               0x080039f5   Thumb Code    50  delay.o(i.delay_init)
    delay_ms                                 0x08003a39   Thumb Code    72  delay.o(i.delay_ms)
    delay_us                                 0x08003a85   Thumb Code    72  delay.o(i.delay_us)
    dmp_enable_6x_lp_quat                    0x08003ad1   Thumb Code    60  inv_mpu_dmp_motion_driver.o(i.dmp_enable_6x_lp_quat)
    dmp_enable_feature                       0x08003b0d   Thumb Code   530  inv_mpu_dmp_motion_driver.o(i.dmp_enable_feature)
    dmp_enable_gyro_cal                      0x08003d29   Thumb Code    62  inv_mpu_dmp_motion_driver.o(i.dmp_enable_gyro_cal)
    dmp_enable_lp_quat                       0x08003d81   Thumb Code    60  inv_mpu_dmp_motion_driver.o(i.dmp_enable_lp_quat)
    dmp_load_motion_driver_firmware          0x08003dbd   Thumb Code    20  inv_mpu_dmp_motion_driver.o(i.dmp_load_motion_driver_firmware)
    dmp_read_fifo                            0x08003dd5   Thumb Code   456  inv_mpu_dmp_motion_driver.o(i.dmp_read_fifo)
    dmp_set_accel_bias                       0x08003fa1   Thumb Code   300  inv_mpu_dmp_motion_driver.o(i.dmp_set_accel_bias)
    dmp_set_fifo_rate                        0x080040d1   Thumb Code    96  inv_mpu_dmp_motion_driver.o(i.dmp_set_fifo_rate)
    dmp_set_gyro_bias                        0x08004141   Thumb Code   294  inv_mpu_dmp_motion_driver.o(i.dmp_set_gyro_bias)
    dmp_set_orientation                      0x08004271   Thumb Code   290  inv_mpu_dmp_motion_driver.o(i.dmp_set_orientation)
    dmp_set_shake_reject_thresh              0x080043a9   Thumb Code    56  inv_mpu_dmp_motion_driver.o(i.dmp_set_shake_reject_thresh)
    dmp_set_shake_reject_time                0x080043e1   Thumb Code    38  inv_mpu_dmp_motion_driver.o(i.dmp_set_shake_reject_time)
    dmp_set_shake_reject_timeout             0x08004407   Thumb Code    38  inv_mpu_dmp_motion_driver.o(i.dmp_set_shake_reject_timeout)
    dmp_set_tap_axes                         0x0800442d   Thumb Code    70  inv_mpu_dmp_motion_driver.o(i.dmp_set_tap_axes)
    dmp_set_tap_count                        0x08004473   Thumb Code    38  inv_mpu_dmp_motion_driver.o(i.dmp_set_tap_count)
    dmp_set_tap_thresh                       0x08004499   Thumb Code   396  inv_mpu_dmp_motion_driver.o(i.dmp_set_tap_thresh)
    dmp_set_tap_time                         0x08004639   Thumb Code    38  inv_mpu_dmp_motion_driver.o(i.dmp_set_tap_time)
    dmp_set_tap_time_multi                   0x0800465f   Thumb Code    38  inv_mpu_dmp_motion_driver.o(i.dmp_set_tap_time_multi)
    fputc                                    0x08004685   Thumb Code    24  usart.o(i.fputc)
    inv_orientation_matrix_to_scalar         0x08004cd1   Thumb Code    40  inv_mpu.o(i.inv_orientation_matrix_to_scalar)
    inv_row_2_scale                          0x08004cf9   Thumb Code    78  inv_mpu.o(i.inv_row_2_scale)
    main                                     0x08004d49   Thumb Code   152  main.o(i.main)
    mget_ms                                  0x08004e01   Thumb Code     2  inv_mpu.o(i.mget_ms)
    mpu_configure_fifo                       0x08004e05   Thumb Code   106  inv_mpu.o(i.mpu_configure_fifo)
    mpu_dmp_get_data                         0x08004e75   Thumb Code   544  inv_mpu.o(i.mpu_dmp_get_data)
    mpu_dmp_init                             0x08005099   Thumb Code   154  inv_mpu.o(i.mpu_dmp_init)
    mpu_get_accel_fsr                        0x08005139   Thumb Code    72  inv_mpu.o(i.mpu_get_accel_fsr)
    mpu_get_accel_sens                       0x08005185   Thumb Code    78  inv_mpu.o(i.mpu_get_accel_sens)
    mpu_get_fifo_config                      0x080051d9   Thumb Code    12  inv_mpu.o(i.mpu_get_fifo_config)
    mpu_get_gyro_fsr                         0x080051e9   Thumb Code    64  inv_mpu.o(i.mpu_get_gyro_fsr)
    mpu_get_gyro_sens                        0x0800522d   Thumb Code    58  inv_mpu.o(i.mpu_get_gyro_sens)
    mpu_get_lpf                              0x0800527d   Thumb Code    74  inv_mpu.o(i.mpu_get_lpf)
    mpu_get_sample_rate                      0x080052cd   Thumb Code    26  inv_mpu.o(i.mpu_get_sample_rate)
    mpu_init                                 0x080052ed   Thumb Code   416  inv_mpu.o(i.mpu_init)
    mpu_load_firmware                        0x080054dd   Thumb Code   180  inv_mpu.o(i.mpu_load_firmware)
    mpu_lp_accel_mode                        0x08005595   Thumb Code   218  inv_mpu.o(i.mpu_lp_accel_mode)
    mpu_read_fifo_stream                     0x08005675   Thumb Code   186  inv_mpu.o(i.mpu_read_fifo_stream)
    mpu_read_mem                             0x08005735   Thumb Code   122  inv_mpu.o(i.mpu_read_mem)
    mpu_reset_fifo                           0x080057b5   Thumb Code   450  inv_mpu.o(i.mpu_reset_fifo)
    mpu_run_self_test                        0x0800597d   Thumb Code   278  inv_mpu.o(i.mpu_run_self_test)
    mpu_set_accel_fsr                        0x08005a99   Thumb Code   126  inv_mpu.o(i.mpu_set_accel_fsr)
    mpu_set_bypass                           0x08005b1d   Thumb Code   328  inv_mpu.o(i.mpu_set_bypass)
    mpu_set_dmp_state                        0x08005c69   Thumb Code   138  inv_mpu.o(i.mpu_set_dmp_state)
    mpu_set_gyro_fsr                         0x08005cf9   Thumb Code   132  inv_mpu.o(i.mpu_set_gyro_fsr)
    mpu_set_int_latched                      0x08005d81   Thumb Code   102  inv_mpu.o(i.mpu_set_int_latched)
    mpu_set_lpf                              0x08005ded   Thumb Code   126  inv_mpu.o(i.mpu_set_lpf)
    mpu_set_sample_rate                      0x08005e71   Thumb Code   152  inv_mpu.o(i.mpu_set_sample_rate)
    mpu_set_sensors                          0x08005f0d   Thumb Code   202  inv_mpu.o(i.mpu_set_sensors)
    mpu_write_mem                            0x08005fdd   Thumb Code   122  inv_mpu.o(i.mpu_write_mem)
    myabs                                    0x0800605d   Thumb Code    14  motor.o(i.myabs)
    run_self_test                            0x0800606b   Thumb Code   148  inv_mpu.o(i.run_self_test)
    sqrt                                     0x08006191   Thumb Code    76  sqrt.o(i.sqrt)
    uart2_init                               0x080061dd   Thumb Code   156  usart2.o(i.uart2_init)
    uart_init                                0x08006285   Thumb Code   152  usart.o(i.uart_init)
    velocity                                 0x08006325   Thumb Code   240  control.o(i.velocity)
    __aeabi_d2f                              0x0800644d   Thumb Code     0  d2f.o(x$fpl$d2f)
    _d2f                                     0x0800644d   Thumb Code    98  d2f.o(x$fpl$d2f)
    __aeabi_dadd                             0x080064b1   Thumb Code     0  daddsub_clz.o(x$fpl$dadd)
    _dadd                                    0x080064b1   Thumb Code   332  daddsub_clz.o(x$fpl$dadd)
    __fpl_dcheck_NaN1                        0x08006601   Thumb Code    10  dcheck1.o(x$fpl$dcheck1)
    __fpl_dcmp_Inf                           0x08006611   Thumb Code    24  dcmpi.o(x$fpl$dcmpinf)
    __aeabi_ddiv                             0x08006629   Thumb Code     0  ddiv.o(x$fpl$ddiv)
    _ddiv                                    0x08006629   Thumb Code   552  ddiv.o(x$fpl$ddiv)
    __aeabi_cdcmpeq                          0x080068d9   Thumb Code     0  deqf.o(x$fpl$deqf)
    _dcmpeq                                  0x080068d9   Thumb Code   120  deqf.o(x$fpl$deqf)
    __aeabi_dmul                             0x08006951   Thumb Code     0  dmul.o(x$fpl$dmul)
    _dmul                                    0x08006951   Thumb Code   332  dmul.o(x$fpl$dmul)
    __fpl_dnaninf                            0x08006aa5   Thumb Code   156  dnaninf.o(x$fpl$dnaninf)
    __fpl_dretinf                            0x08006b41   Thumb Code    12  dretinf.o(x$fpl$dretinf)
    __aeabi_drsub                            0x08006b4d   Thumb Code     0  daddsub_clz.o(x$fpl$drsb)
    _drsb                                    0x08006b4d   Thumb Code    22  daddsub_clz.o(x$fpl$drsb)
    _dsqrt                                   0x08006b65   Thumb Code   456  dsqrt_noumaal.o(x$fpl$dsqrt)
    __aeabi_dsub                             0x08006d31   Thumb Code     0  daddsub_clz.o(x$fpl$dsub)
    _dsub                                    0x08006d31   Thumb Code   464  daddsub_clz.o(x$fpl$dsub)
    __aeabi_f2d                              0x08006f05   Thumb Code     0  f2d.o(x$fpl$f2d)
    _f2d                                     0x08006f05   Thumb Code    86  f2d.o(x$fpl$f2d)
    __aeabi_fadd                             0x08006f5d   Thumb Code     0  faddsub_clz.o(x$fpl$fadd)
    _fadd                                    0x08006f5d   Thumb Code   196  faddsub_clz.o(x$fpl$fadd)
    __fpl_fcmp_Inf                           0x08007021   Thumb Code    24  fcmpi.o(x$fpl$fcmpinf)
    __aeabi_fdiv                             0x08007039   Thumb Code     0  fdiv.o(x$fpl$fdiv)
    _fdiv                                    0x08007039   Thumb Code   384  fdiv.o(x$fpl$fdiv)
    __aeabi_cfcmpeq                          0x080071bd   Thumb Code     0  feqf.o(x$fpl$feqf)
    _fcmpeq                                  0x080071bd   Thumb Code   104  feqf.o(x$fpl$feqf)
    __aeabi_f2iz                             0x08007225   Thumb Code     0  ffix.o(x$fpl$ffix)
    _ffix                                    0x08007225   Thumb Code    54  ffix.o(x$fpl$ffix)
    __aeabi_f2uiz                            0x0800725d   Thumb Code     0  ffixu.o(x$fpl$ffixu)
    _ffixu                                   0x0800725d   Thumb Code    62  ffixu.o(x$fpl$ffixu)
    __aeabi_i2f                              0x0800729d   Thumb Code     0  fflt_clz.o(x$fpl$fflt)
    _fflt                                    0x0800729d   Thumb Code    48  fflt_clz.o(x$fpl$fflt)
    __aeabi_ui2f                             0x080072cd   Thumb Code     0  fflt_clz.o(x$fpl$ffltu)
    _ffltu                                   0x080072cd   Thumb Code    38  fflt_clz.o(x$fpl$ffltu)
    __aeabi_cfcmple                          0x080072f5   Thumb Code     0  fleqf.o(x$fpl$fleqf)
    _fcmple                                  0x080072f5   Thumb Code   104  fleqf.o(x$fpl$fleqf)
    __fpl_fcmple_InfNaN                      0x08007347   Thumb Code     0  fleqf.o(x$fpl$fleqf)
    __aeabi_fmul                             0x0800735d   Thumb Code     0  fmul.o(x$fpl$fmul)
    _fmul                                    0x0800735d   Thumb Code   258  fmul.o(x$fpl$fmul)
    __fpl_fnaninf                            0x0800745f   Thumb Code   140  fnaninf.o(x$fpl$fnaninf)
    __fpl_fretinf                            0x080074eb   Thumb Code    10  fretinf.o(x$fpl$fretinf)
    __aeabi_cfrcmple                         0x080074f5   Thumb Code     0  frleqf.o(x$fpl$frleqf)
    _frcmple                                 0x080074f5   Thumb Code    98  frleqf.o(x$fpl$frleqf)
    __aeabi_frsub                            0x08007557   Thumb Code     0  faddsub_clz.o(x$fpl$frsb)
    _frsb                                    0x08007557   Thumb Code    20  faddsub_clz.o(x$fpl$frsb)
    __aeabi_fsub                             0x0800756d   Thumb Code     0  faddsub_clz.o(x$fpl$fsub)
    _fsub                                    0x0800756d   Thumb Code   234  faddsub_clz.o(x$fpl$fsub)
    __fpl_return_NaN                         0x08007657   Thumb Code   100  retnan.o(x$fpl$retnan)
    __ARM_scalbn                             0x080076bb   Thumb Code    92  scalbn.o(x$fpl$scalbn)
    __fpl_cmpreturn                          0x08007717   Thumb Code    48  trapv.o(x$fpl$trapveneer)
    __I$use$fp                               0x08007746   Number         0  usenofp.o(x$fpl$usenofp)
    reg                                      0x08007748   Data          27  inv_mpu.o(.constdata)
    hw                                       0x08007764   Data          12  inv_mpu.o(.constdata)
    test                                     0x08007770   Data          40  inv_mpu.o(.constdata)
    OLED_F8x16                               0x080083ac   Data        1520  oled.o(.constdata)
    __mathlib_zero                           0x08008a98   Data           8  qnan.o(.constdata)
    Region$$Table$$Base                      0x08008af0   Number         0  anon$$obj.o(Region$$Table)
    Region$$Table$$Limit                     0x08008b10   Number         0  anon$$obj.o(Region$$Table)
    __stdout                                 0x20000004   Data           4  usart.o(.data)
    USART_RX_STA                             0x20000008   Data           2  usart.o(.data)
    SystemCoreClock                          0x20000020   Data           4  system_stm32f10x.o(.data)
    AHBPrescTable                            0x20000024   Data          16  system_stm32f10x.o(.data)
    Balance_Pwm                              0x2000006c   Data           4  control.o(.data)
    Velocity_Pwm                             0x20000070   Data           4  control.o(.data)
    Turn_Pwm                                 0x20000074   Data           4  control.o(.data)
    Mechanical_angle                         0x20000078   Data           4  control.o(.data)
    balance_UP_KP                            0x2000007c   Data           4  control.o(.data)
    balance_UP_KD                            0x20000080   Data           4  control.o(.data)
    velocity_KP                              0x20000084   Data           4  control.o(.data)
    velocity_KI                              0x20000088   Data           4  control.o(.data)
    Turn_Kd                                  0x2000008c   Data           4  control.o(.data)
    Turn_Kp                                  0x20000090   Data           4  control.o(.data)
    Left_Speed                               0x20000094   Data           4  control.o(.data)
    Right_Speed                              0x20000098   Data           4  control.o(.data)
    pitch                                    0x2000009c   Data           4  control.o(.data)
    roll                                     0x200000a0   Data           4  control.o(.data)
    yaw                                      0x200000a4   Data           4  control.o(.data)
    aacx                                     0x200000a8   Data           2  control.o(.data)
    aacy                                     0x200000aa   Data           2  control.o(.data)
    aacz                                     0x200000ac   Data           2  control.o(.data)
    gyrox                                    0x200000ae   Data           2  control.o(.data)
    gyroy                                    0x200000b0   Data           2  control.o(.data)
    gyroz                                    0x200000b2   Data           2  control.o(.data)
    ForeAndBack_Speed                        0x200000b4   Data           4  control.o(.data)
    RectAndTri_Speed                         0x200000b8   Data           4  control.o(.data)
    LeftAndRight_Speed                       0x200000bc   Data           4  control.o(.data)
    Clockwise_Speed                          0x200000c0   Data           4  control.o(.data)
    Turn_Speed                               0x200000c4   Data           4  control.o(.data)
    Flag_Stop                                0x200000c8   Data           4  control.o(.data)
    Flag_PickUp                              0x200000cc   Data           4  control.o(.data)
    Flag_Vertical                            0x200000d0   Data           4  control.o(.data)
    cnt1                                     0x200000d4   Data           4  control.o(.data)
    cnt2                                     0x200000d8   Data           4  control.o(.data)
    cnt3                                     0x200000dc   Data           4  control.o(.data)
    Limit_Angle                              0x200000e0   Data           4  control.o(.data)
    Moto1                                    0x200000e4   Data           4  control.o(.data)
    Moto2                                    0x200000e8   Data           4  control.o(.data)
    MAX_ForeAndBack                          0x200000ec   Data           4  control.o(.data)
    MAX_LeftAndRight                         0x200000f0   Data           4  control.o(.data)
    Encoder_Left                             0x20000104   Data           4  encoder.o(.data)
    Encoder_Right                            0x20000108   Data           4  encoder.o(.data)
    cnt_Rect                                 0x2000010c   Data           4  timer.o(.data)
    cnt_Tri                                  0x20000110   Data           4  timer.o(.data)
    bmpBluetooth                             0x2000011c   Data         128  usart2.o(.data)
    bluetooth_Receive_Val                    0x2000019c   Data           2  usart2.o(.data)
    flag_if                                  0x200001a0   Data           4  usart2.o(.data)
    USART_RX_BUF                             0x200001ac   Data         200  usart.o(.bss)
    emptyBluetooth                           0x20000284   Data         128  usart2.o(.bss)
    __libspace_start                         0x20000304   Data          96  libspace.o(.bss)
    __temporary_stack_top$libspace           0x20000364   Data           0  libspace.o(.bss)



==============================================================================

Memory Map of the image

  Image Entry point : 0x080001d1

  Load Region LR_1 (Base: 0x08000000, Size: 0x00008cbc, Max: 0xffffffff, ABSOLUTE, COMPRESSED[0x00008b88])

    Execution Region ER_RO (Exec base: 0x08000000, Load base: 0x08000000, Size: 0x00008b10, Max: 0xffffffff, ABSOLUTE)

    Exec Addr    Load Addr    Size         Type   Attr      Idx    E Section Name        Object

    0x08000000   0x08000000   0x000000ec   Data   RO         1506    RESET               startup_stm32f10x_md.o
    0x080000ec   0x080000ec   0x00000008   Code   RO         2887  * !!!main             c_w.l(__main.o)
    0x080000f4   0x080000f4   0x00000034   Code   RO         3218    !!!scatter          c_w.l(__scatter.o)
    0x08000128   0x08000128   0x0000005a   Code   RO         3216    !!dczerorl2         c_w.l(__dczerorl2.o)
    0x08000182   0x08000182   0x00000002   PAD
    0x08000184   0x08000184   0x0000001c   Code   RO         3220    !!handler_zi        c_w.l(__scatter_zi.o)
    0x080001a0   0x080001a0   0x00000000   Code   RO         2880    .ARM.Collect$$_printf_percent$$00000000  c_w.l(_printf_percent.o)
    0x080001a0   0x080001a0   0x00000006   Code   RO         2879    .ARM.Collect$$_printf_percent$$00000009  c_w.l(_printf_d.o)
    0x080001a6   0x080001a6   0x00000004   Code   RO         2972    .ARM.Collect$$_printf_percent$$00000017  c_w.l(_printf_percent_end.o)
    0x080001aa   0x080001aa   0x00000002   Code   RO         3083    .ARM.Collect$$libinit$$00000000  c_w.l(libinit.o)
    0x080001ac   0x080001ac   0x00000000   Code   RO         3093    .ARM.Collect$$libinit$$00000002  c_w.l(libinit2.o)
    0x080001ac   0x080001ac   0x00000000   Code   RO         3095    .ARM.Collect$$libinit$$00000004  c_w.l(libinit2.o)
    0x080001ac   0x080001ac   0x00000000   Code   RO         3098    .ARM.Collect$$libinit$$0000000A  c_w.l(libinit2.o)
    0x080001ac   0x080001ac   0x00000000   Code   RO         3100    .ARM.Collect$$libinit$$0000000C  c_w.l(libinit2.o)
    0x080001ac   0x080001ac   0x00000000   Code   RO         3102    .ARM.Collect$$libinit$$0000000E  c_w.l(libinit2.o)
    0x080001ac   0x080001ac   0x00000000   Code   RO         3105    .ARM.Collect$$libinit$$00000011  c_w.l(libinit2.o)
    0x080001ac   0x080001ac   0x00000000   Code   RO         3107    .ARM.Collect$$libinit$$00000013  c_w.l(libinit2.o)
    0x080001ac   0x080001ac   0x00000000   Code   RO         3109    .ARM.Collect$$libinit$$00000015  c_w.l(libinit2.o)
    0x080001ac   0x080001ac   0x00000000   Code   RO         3111    .ARM.Collect$$libinit$$00000017  c_w.l(libinit2.o)
    0x080001ac   0x080001ac   0x00000000   Code   RO         3113    .ARM.Collect$$libinit$$00000019  c_w.l(libinit2.o)
    0x080001ac   0x080001ac   0x00000000   Code   RO         3115    .ARM.Collect$$libinit$$0000001B  c_w.l(libinit2.o)
    0x080001ac   0x080001ac   0x00000000   Code   RO         3117    .ARM.Collect$$libinit$$0000001D  c_w.l(libinit2.o)
    0x080001ac   0x080001ac   0x00000000   Code   RO         3119    .ARM.Collect$$libinit$$0000001F  c_w.l(libinit2.o)
    0x080001ac   0x080001ac   0x00000000   Code   RO         3121    .ARM.Collect$$libinit$$00000021  c_w.l(libinit2.o)
    0x080001ac   0x080001ac   0x00000000   Code   RO         3123    .ARM.Collect$$libinit$$00000023  c_w.l(libinit2.o)
    0x080001ac   0x080001ac   0x00000000   Code   RO         3125    .ARM.Collect$$libinit$$00000025  c_w.l(libinit2.o)
    0x080001ac   0x080001ac   0x00000000   Code   RO         3129    .ARM.Collect$$libinit$$0000002C  c_w.l(libinit2.o)
    0x080001ac   0x080001ac   0x00000000   Code   RO         3131    .ARM.Collect$$libinit$$0000002E  c_w.l(libinit2.o)
    0x080001ac   0x080001ac   0x00000000   Code   RO         3133    .ARM.Collect$$libinit$$00000030  c_w.l(libinit2.o)
    0x080001ac   0x080001ac   0x00000000   Code   RO         3135    .ARM.Collect$$libinit$$00000032  c_w.l(libinit2.o)
    0x080001ac   0x080001ac   0x00000002   Code   RO         3136    .ARM.Collect$$libinit$$00000033  c_w.l(libinit2.o)
    0x080001ae   0x080001ae   0x00000002   Code   RO         3166    .ARM.Collect$$libshutdown$$00000000  c_w.l(libshutdown.o)
    0x080001b0   0x080001b0   0x00000000   Code   RO         3180    .ARM.Collect$$libshutdown$$00000002  c_w.l(libshutdown2.o)
    0x080001b0   0x080001b0   0x00000000   Code   RO         3182    .ARM.Collect$$libshutdown$$00000004  c_w.l(libshutdown2.o)
    0x080001b0   0x080001b0   0x00000000   Code   RO         3184    .ARM.Collect$$libshutdown$$00000006  c_w.l(libshutdown2.o)
    0x080001b0   0x080001b0   0x00000000   Code   RO         3187    .ARM.Collect$$libshutdown$$00000009  c_w.l(libshutdown2.o)
    0x080001b0   0x080001b0   0x00000000   Code   RO         3190    .ARM.Collect$$libshutdown$$0000000C  c_w.l(libshutdown2.o)
    0x080001b0   0x080001b0   0x00000000   Code   RO         3192    .ARM.Collect$$libshutdown$$0000000E  c_w.l(libshutdown2.o)
    0x080001b0   0x080001b0   0x00000000   Code   RO         3195    .ARM.Collect$$libshutdown$$00000011  c_w.l(libshutdown2.o)
    0x080001b0   0x080001b0   0x00000002   Code   RO         3196    .ARM.Collect$$libshutdown$$00000012  c_w.l(libshutdown2.o)
    0x080001b2   0x080001b2   0x00000000   Code   RO         2963    .ARM.Collect$$rtentry$$00000000  c_w.l(__rtentry.o)
    0x080001b2   0x080001b2   0x00000000   Code   RO         3028    .ARM.Collect$$rtentry$$00000002  c_w.l(__rtentry2.o)
    0x080001b2   0x080001b2   0x00000006   Code   RO         3040    .ARM.Collect$$rtentry$$00000004  c_w.l(__rtentry4.o)
    0x080001b8   0x080001b8   0x00000000   Code   RO         3030    .ARM.Collect$$rtentry$$00000009  c_w.l(__rtentry2.o)
    0x080001b8   0x080001b8   0x00000004   Code   RO         3031    .ARM.Collect$$rtentry$$0000000A  c_w.l(__rtentry2.o)
    0x080001bc   0x080001bc   0x00000000   Code   RO         3033    .ARM.Collect$$rtentry$$0000000C  c_w.l(__rtentry2.o)
    0x080001bc   0x080001bc   0x00000008   Code   RO         3034    .ARM.Collect$$rtentry$$0000000D  c_w.l(__rtentry2.o)
    0x080001c4   0x080001c4   0x00000002   Code   RO         3086    .ARM.Collect$$rtexit$$00000000  c_w.l(rtexit.o)
    0x080001c6   0x080001c6   0x00000000   Code   RO         3140    .ARM.Collect$$rtexit$$00000002  c_w.l(rtexit2.o)
    0x080001c6   0x080001c6   0x00000004   Code   RO         3141    .ARM.Collect$$rtexit$$00000003  c_w.l(rtexit2.o)
    0x080001ca   0x080001ca   0x00000006   Code   RO         3142    .ARM.Collect$$rtexit$$00000004  c_w.l(rtexit2.o)
    0x080001d0   0x080001d0   0x00000040   Code   RO         1507  * .text               startup_stm32f10x_md.o
    0x08000210   0x08000210   0x00000002   Code   RO         2823    .text               c_w.l(use_no_semi_2.o)
    0x08000212   0x08000212   0x00000048   Code   RO         2825    .text               c_w.l(llsdiv.o)
    0x0800025a   0x0800025a   0x00000002   PAD
    0x0800025c   0x0800025c   0x00000018   Code   RO         2829    .text               c_w.l(noretval__2printf.o)
    0x08000274   0x08000274   0x00000078   Code   RO         2835    .text               c_w.l(_printf_dec.o)
    0x080002ec   0x080002ec   0x00000138   Code   RO         2870    .text               c_w.l(__printf_flags_wp.o)
    0x08000424   0x08000424   0x00000058   Code   RO         2881    .text               c_w.l(memcmp.o)
    0x0800047c   0x0800047c   0x00000010   Code   RO         2883    .text               c_w.l(aeabi_memset.o)
    0x0800048c   0x0800048c   0x00000006   Code   RO         2885    .text               c_w.l(heapauxi.o)
    0x08000492   0x08000492   0x00000002   Code   RO         2961    .text               c_w.l(use_no_semi.o)
    0x08000494   0x08000494   0x000000ee   Code   RO         2964    .text               c_w.l(lludivv7m.o)
    0x08000582   0x08000582   0x00000016   Code   RO         2966    .text               c_w.l(_rserrno.o)
    0x08000598   0x08000598   0x000000b2   Code   RO         2968    .text               c_w.l(_printf_intcommon.o)
    0x0800064a   0x0800064a   0x00000002   PAD
    0x0800064c   0x0800064c   0x00000024   Code   RO         2970    .text               c_w.l(_printf_char_file.o)
    0x08000670   0x08000670   0x00000044   Code   RO         2973    .text               c_w.l(rt_memclr.o)
    0x080006b4   0x080006b4   0x00000008   Code   RO         3049    .text               c_w.l(rt_errno_addr_intlibspace.o)
    0x080006bc   0x080006bc   0x00000030   Code   RO         3051    .text               c_w.l(_printf_char_common.o)
    0x080006ec   0x080006ec   0x00000008   Code   RO         3053    .text               c_w.l(ferror.o)
    0x080006f4   0x080006f4   0x0000004e   Code   RO         3057    .text               c_w.l(rt_memclr_w.o)
    0x08000742   0x08000742   0x00000002   PAD
    0x08000744   0x08000744   0x00000008   Code   RO         3067    .text               c_w.l(libspace.o)
    0x0800074c   0x0800074c   0x0000004a   Code   RO         3070    .text               c_w.l(sys_stackheap_outer.o)
    0x08000796   0x08000796   0x00000012   Code   RO         3076    .text               c_w.l(exit.o)
    0x080007a8   0x080007a8   0x00000004   Code   RO         1666    i.BusFault_Handler  stm32f10x_it.o
    0x080007ac   0x080007ac   0x00000002   Code   RO         1667    i.DebugMon_Handler  stm32f10x_it.o
    0x080007ae   0x080007ae   0x00000002   PAD
    0x080007b0   0x080007b0   0x00000250   Code   RO         2462    i.Direction_Mode    control.o
    0x08000a00   0x08000a00   0x000004e4   Code   RO         2463    i.EXTI9_5_IRQHandler  control.o
    0x08000ee4   0x08000ee4   0x00000094   Code   RO          897    i.EXTI_Init         stm32f10x_exti.o
    0x08000f78   0x08000f78   0x000000a0   Code   RO         2510    i.Encoder_Init_TIM2  encoder.o
    0x08001018   0x08001018   0x0000009c   Code   RO         2511    i.Encoder_Init_TIM3  encoder.o
    0x080010b4   0x080010b4   0x00000040   Code   RO          376    i.GPIO_EXTILineConfig  stm32f10x_gpio.o
    0x080010f4   0x080010f4   0x00000116   Code   RO          379    i.GPIO_Init         stm32f10x_gpio.o
    0x0800120a   0x0800120a   0x00000002   PAD
    0x0800120c   0x0800120c   0x00000090   Code   RO          381    i.GPIO_PinRemapConfig  stm32f10x_gpio.o
    0x0800129c   0x0800129c   0x00000012   Code   RO          383    i.GPIO_ReadInputDataBit  stm32f10x_gpio.o
    0x080012ae   0x080012ae   0x00000004   Code   RO          387    i.GPIO_SetBits      stm32f10x_gpio.o
    0x080012b2   0x080012b2   0x0000000a   Code   RO          390    i.GPIO_WriteBit     stm32f10x_gpio.o
    0x080012bc   0x080012bc   0x00000004   Code   RO         1668    i.HardFault_Handler  stm32f10x_it.o
    0x080012c0   0x080012c0   0x00000050   Code   RO         2450    i.MPU6050_EXTI_Init  mpu_exti.o
    0x08001310   0x08001310   0x00000050   Code   RO         1789    i.MPU_Get_Accelerometer  mpu6050.o
    0x08001360   0x08001360   0x00000050   Code   RO         1790    i.MPU_Get_Gyroscope  mpu6050.o
    0x080013b0   0x080013b0   0x0000004c   Code   RO         1873    i.MPU_IIC_Ack       mpuiic.o
    0x080013fc   0x080013fc   0x0000000a   Code   RO         1874    i.MPU_IIC_Delay     mpuiic.o
    0x08001406   0x08001406   0x00000002   PAD
    0x08001408   0x08001408   0x00000048   Code   RO         1875    i.MPU_IIC_Init      mpuiic.o
    0x08001450   0x08001450   0x0000004c   Code   RO         1876    i.MPU_IIC_NAck      mpuiic.o
    0x0800149c   0x0800149c   0x0000006c   Code   RO         1877    i.MPU_IIC_Read_Byte  mpuiic.o
    0x08001508   0x08001508   0x0000005c   Code   RO         1878    i.MPU_IIC_Send_Byte  mpuiic.o
    0x08001564   0x08001564   0x00000048   Code   RO         1879    i.MPU_IIC_Start     mpuiic.o
    0x080015ac   0x080015ac   0x00000048   Code   RO         1880    i.MPU_IIC_Stop      mpuiic.o
    0x080015f4   0x080015f4   0x00000064   Code   RO         1881    i.MPU_IIC_Wait_Ack  mpuiic.o
    0x08001658   0x08001658   0x0000007a   Code   RO         1792    i.MPU_Init          mpu6050.o
    0x080016d2   0x080016d2   0x0000003a   Code   RO         1793    i.MPU_Read_Byte     mpu6050.o
    0x0800170c   0x0800170c   0x00000074   Code   RO         1794    i.MPU_Read_Len      mpu6050.o
    0x08001780   0x08001780   0x00000010   Code   RO         1795    i.MPU_Set_Accel_Fsr  mpu6050.o
    0x08001790   0x08001790   0x00000010   Code   RO         1796    i.MPU_Set_Gyro_Fsr  mpu6050.o
    0x080017a0   0x080017a0   0x0000003a   Code   RO         1797    i.MPU_Set_LPF       mpu6050.o
    0x080017da   0x080017da   0x0000003a   Code   RO         1798    i.MPU_Set_Rate      mpu6050.o
    0x08001814   0x08001814   0x00000044   Code   RO         1799    i.MPU_Write_Byte    mpu6050.o
    0x08001858   0x08001858   0x00000060   Code   RO         1800    i.MPU_Write_Len     mpu6050.o
    0x080018b8   0x080018b8   0x00000004   Code   RO         1669    i.MemManage_Handler  stm32f10x_it.o
    0x080018bc   0x080018bc   0x00000030   Code   RO         2552    i.Motor_Init        motor.o
    0x080018ec   0x080018ec   0x00000002   Code   RO         1670    i.NMI_Handler       stm32f10x_it.o
    0x080018ee   0x080018ee   0x0000005e   Code   RO          189    i.NVIC_Configuration  sys.o
    0x0800194c   0x0800194c   0x00000070   Code   RO          254    i.NVIC_Init         misc.o
    0x080019bc   0x080019bc   0x00000014   Code   RO          255    i.NVIC_PriorityGroupConfig  misc.o
    0x080019d0   0x080019d0   0x0000002a   Code   RO         2650    i.OLED_Clear        oled.o
    0x080019fa   0x080019fa   0x00000074   Code   RO         2651    i.OLED_DrawBMP      oled.o
    0x08001a6e   0x08001a6e   0x00000002   PAD
    0x08001a70   0x08001a70   0x00000050   Code   RO         2652    i.OLED_I2C_Init     oled.o
    0x08001ac0   0x08001ac0   0x00000054   Code   RO         2653    i.OLED_I2C_SendByte  oled.o
    0x08001b14   0x08001b14   0x00000034   Code   RO         2654    i.OLED_I2C_Start    oled.o
    0x08001b48   0x08001b48   0x00000028   Code   RO         2655    i.OLED_I2C_Stop     oled.o
    0x08001b70   0x08001b70   0x000000ae   Code   RO         2656    i.OLED_Init         oled.o
    0x08001c1e   0x08001c1e   0x00000014   Code   RO         2657    i.OLED_Pow          oled.o
    0x08001c32   0x08001c32   0x00000022   Code   RO         2658    i.OLED_SetCursor    oled.o
    0x08001c54   0x08001c54   0x00000074   Code   RO         2660    i.OLED_ShowChar     oled.o
    0x08001cc8   0x08001cc8   0x00000044   Code   RO         2662    i.OLED_ShowNum      oled.o
    0x08001d0c   0x08001d0c   0x00000066   Code   RO         2663    i.OLED_ShowSignedNum  oled.o
    0x08001d72   0x08001d72   0x00000028   Code   RO         2664    i.OLED_ShowString   oled.o
    0x08001d9a   0x08001d9a   0x00000020   Code   RO         2665    i.OLED_WriteCommand  oled.o
    0x08001dba   0x08001dba   0x00000020   Code   RO         2666    i.OLED_WriteData    oled.o
    0x08001dda   0x08001dda   0x00000002   PAD
    0x08001ddc   0x08001ddc   0x000000c8   Code   RO         2585    i.PWM_Init          pwm.o
    0x08001ea4   0x08001ea4   0x00000002   Code   RO         1671    i.PendSV_Handler    stm32f10x_it.o
    0x08001ea6   0x08001ea6   0x00000002   PAD
    0x08001ea8   0x08001ea8   0x00000020   Code   RO          513    i.RCC_APB1PeriphClockCmd  stm32f10x_rcc.o
    0x08001ec8   0x08001ec8   0x00000020   Code   RO          515    i.RCC_APB2PeriphClockCmd  stm32f10x_rcc.o
    0x08001ee8   0x08001ee8   0x000000d4   Code   RO          523    i.RCC_GetClocksFreq  stm32f10x_rcc.o
    0x08001fbc   0x08001fbc   0x00000050   Code   RO         2512    i.Read_Encoder      encoder.o
    0x0800200c   0x0800200c   0x00000002   Code   RO         1672    i.SVC_Handler       stm32f10x_it.o
    0x0800200e   0x0800200e   0x00000002   PAD
    0x08002010   0x08002010   0x00000094   Code   RO          190    i.SYS_Init          sys.o
    0x080020a4   0x080020a4   0x00000008   Code   RO         1755    i.SetSysClock       system_stm32f10x.o
    0x080020ac   0x080020ac   0x000000e0   Code   RO         1756    i.SetSysClockTo72   system_stm32f10x.o
    0x0800218c   0x0800218c   0x00000064   Code   RO         2464    i.Set_MaxSpeed      control.o
    0x080021f0   0x080021f0   0x00000074   Code   RO         2553    i.Set_Pwm           motor.o
    0x08002264   0x08002264   0x00000028   Code   RO          258    i.SysTick_CLKSourceConfig  misc.o
    0x0800228c   0x0800228c   0x00000002   Code   RO         1673    i.SysTick_Handler   stm32f10x_it.o
    0x0800228e   0x0800228e   0x00000002   PAD
    0x08002290   0x08002290   0x00000060   Code   RO         1758    i.SystemInit        system_stm32f10x.o
    0x080022f0   0x080022f0   0x00000080   Code   RO          945    i.TI1_Config        stm32f10x_tim.o
    0x08002370   0x08002370   0x00000098   Code   RO          946    i.TI2_Config        stm32f10x_tim.o
    0x08002408   0x08002408   0x00000090   Code   RO          947    i.TI3_Config        stm32f10x_tim.o
    0x08002498   0x08002498   0x00000098   Code   RO          948    i.TI4_Config        stm32f10x_tim.o
    0x08002530   0x08002530   0x00000018   Code   RO         2513    i.TIM2_IRQHandler   encoder.o
    0x08002548   0x08002548   0x00000018   Code   RO         2514    i.TIM3_IRQHandler   encoder.o
    0x08002560   0x08002560   0x0000009c   Code   RO         2597    i.TIM4_IRQHandler   timer.o
    0x080025fc   0x080025fc   0x00000040   Code   RO         2598    i.TIM4_Int_Init     timer.o
    0x0800263c   0x0800263c   0x00000018   Code   RO          949    i.TIM_ARRPreloadConfig  stm32f10x_tim.o
    0x08002654   0x08002654   0x00000006   Code   RO          955    i.TIM_ClearFlag     stm32f10x_tim.o
    0x0800265a   0x0800265a   0x00000006   Code   RO          956    i.TIM_ClearITPendingBit  stm32f10x_tim.o
    0x08002660   0x08002660   0x00000018   Code   RO          961    i.TIM_Cmd           stm32f10x_tim.o
    0x08002678   0x08002678   0x0000001e   Code   RO          963    i.TIM_CtrlPWMOutputs  stm32f10x_tim.o
    0x08002696   0x08002696   0x00000042   Code   RO          970    i.TIM_EncoderInterfaceConfig  stm32f10x_tim.o
    0x080026d8   0x080026d8   0x00000022   Code   RO          982    i.TIM_GetITStatus   stm32f10x_tim.o
    0x080026fa   0x080026fa   0x00000002   PAD
    0x080026fc   0x080026fc   0x000000ac   Code   RO          984    i.TIM_ICInit        stm32f10x_tim.o
    0x080027a8   0x080027a8   0x00000012   Code   RO          985    i.TIM_ICStructInit  stm32f10x_tim.o
    0x080027ba   0x080027ba   0x00000012   Code   RO          986    i.TIM_ITConfig      stm32f10x_tim.o
    0x080027cc   0x080027cc   0x00000098   Code   RO          990    i.TIM_OC1Init       stm32f10x_tim.o
    0x08002864   0x08002864   0x00000012   Code   RO          993    i.TIM_OC1PreloadConfig  stm32f10x_tim.o
    0x08002876   0x08002876   0x00000002   PAD
    0x08002878   0x08002878   0x0000007c   Code   RO         1005    i.TIM_OC4Init       stm32f10x_tim.o
    0x080028f4   0x080028f4   0x0000001a   Code   RO         1007    i.TIM_OC4PreloadConfig  stm32f10x_tim.o
    0x0800290e   0x0800290e   0x00000004   Code   RO         1026    i.TIM_SetCounter    stm32f10x_tim.o
    0x08002912   0x08002912   0x00000012   Code   RO         1027    i.TIM_SetIC1Prescaler  stm32f10x_tim.o
    0x08002924   0x08002924   0x0000001a   Code   RO         1028    i.TIM_SetIC2Prescaler  stm32f10x_tim.o
    0x0800293e   0x0800293e   0x00000012   Code   RO         1029    i.TIM_SetIC3Prescaler  stm32f10x_tim.o
    0x08002950   0x08002950   0x0000001a   Code   RO         1030    i.TIM_SetIC4Prescaler  stm32f10x_tim.o
    0x0800296a   0x0800296a   0x00000002   PAD
    0x0800296c   0x0800296c   0x000000a4   Code   RO         1032    i.TIM_TimeBaseInit  stm32f10x_tim.o
    0x08002a10   0x08002a10   0x00000012   Code   RO         1033    i.TIM_TimeBaseStructInit  stm32f10x_tim.o
    0x08002a22   0x08002a22   0x00000002   PAD
    0x08002a24   0x08002a24   0x00000230   Code   RO         2465    i.Turn              control.o
    0x08002c54   0x08002c54   0x00000088   Code   RO          213    i.USART1_IRQHandler  usart.o
    0x08002cdc   0x08002cdc   0x00000298   Code   RO         2622    i.USART2_IRQHandler  usart2.o
    0x08002f74   0x08002f74   0x00000018   Code   RO          715    i.USART_Cmd         stm32f10x_usart.o
    0x08002f8c   0x08002f8c   0x00000054   Code   RO          719    i.USART_GetITStatus  stm32f10x_usart.o
    0x08002fe0   0x08002fe0   0x0000004a   Code   RO          721    i.USART_ITConfig    stm32f10x_usart.o
    0x0800302a   0x0800302a   0x00000002   PAD
    0x0800302c   0x0800302c   0x000000d8   Code   RO          722    i.USART_Init        stm32f10x_usart.o
    0x08003104   0x08003104   0x0000000a   Code   RO          729    i.USART_ReceiveData  stm32f10x_usart.o
    0x0800310e   0x0800310e   0x00000004   Code   RO         1674    i.UsageFault_Handler  stm32f10x_it.o
    0x08003112   0x08003112   0x00000002   PAD
    0x08003114   0x08003114   0x00000048   Code   RO         2466    i.Vertical          control.o
    0x0800315c   0x0800315c   0x00000054   Code   RO         2554    i.Xianfu_Pwm        motor.o
    0x080031b0   0x080031b0   0x00000028   Code   RO         3014    i.__ARM_fpclassify  m_ws.l(fpclassify.o)
    0x080031d8   0x080031d8   0x000000aa   Code   RO         3016    i.__kernel_poly     m_ws.l(poly.o)
    0x08003282   0x08003282   0x00000006   Code   RO         3001    i.__mathlib_dbl_infnan  m_ws.l(dunder.o)
    0x08003288   0x08003288   0x00000004   Code   RO         3002    i.__mathlib_dbl_infnan2  m_ws.l(dunder.o)
    0x0800328c   0x0800328c   0x0000000c   Code   RO         3003    i.__mathlib_dbl_invalid  m_ws.l(dunder.o)
    0x08003298   0x08003298   0x00000010   Code   RO         3006    i.__mathlib_dbl_underflow  m_ws.l(dunder.o)
    0x080032a8   0x080032a8   0x0000000e   Code   RO         2868    i._is_digit         c_w.l(__printf_wp.o)
    0x080032b6   0x080032b6   0x00000004   Code   RO          214    i._sys_exit         usart.o
    0x080032ba   0x080032ba   0x00000002   PAD
    0x080032bc   0x080032bc   0x000000a8   Code   RO         1933    i.accel_self_test   inv_mpu.o
    0x08003364   0x08003364   0x00000270   Code   RO         2944    i.asin              m_ws.l(asin.o)
    0x080035d4   0x080035d4   0x00000220   Code   RO         2991    i.atan              m_ws.l(atan.o)
    0x080037f4   0x080037f4   0x0000019c   Code   RO         2954    i.atan2             m_ws.l(atan2.o)
    0x08003990   0x08003990   0x00000064   Code   RO         2258    i.decode_gesture    inv_mpu_dmp_motion_driver.o
    0x080039f4   0x080039f4   0x00000044   Code   RO            1    i.delay_init        delay.o
    0x08003a38   0x08003a38   0x0000004c   Code   RO            2    i.delay_ms          delay.o
    0x08003a84   0x08003a84   0x0000004c   Code   RO            3    i.delay_us          delay.o
    0x08003ad0   0x08003ad0   0x0000003c   Code   RO         2259    i.dmp_enable_6x_lp_quat  inv_mpu_dmp_motion_driver.o
    0x08003b0c   0x08003b0c   0x0000021c   Code   RO         2260    i.dmp_enable_feature  inv_mpu_dmp_motion_driver.o
    0x08003d28   0x08003d28   0x00000058   Code   RO         2261    i.dmp_enable_gyro_cal  inv_mpu_dmp_motion_driver.o
    0x08003d80   0x08003d80   0x0000003c   Code   RO         2262    i.dmp_enable_lp_quat  inv_mpu_dmp_motion_driver.o
    0x08003dbc   0x08003dbc   0x00000018   Code   RO         2267    i.dmp_load_motion_driver_firmware  inv_mpu_dmp_motion_driver.o
    0x08003dd4   0x08003dd4   0x000001cc   Code   RO         2268    i.dmp_read_fifo     inv_mpu_dmp_motion_driver.o
    0x08003fa0   0x08003fa0   0x00000130   Code   RO         2271    i.dmp_set_accel_bias  inv_mpu_dmp_motion_driver.o
    0x080040d0   0x080040d0   0x00000070   Code   RO         2272    i.dmp_set_fifo_rate  inv_mpu_dmp_motion_driver.o
    0x08004140   0x08004140   0x00000130   Code   RO         2273    i.dmp_set_gyro_bias  inv_mpu_dmp_motion_driver.o
    0x08004270   0x08004270   0x00000138   Code   RO         2275    i.dmp_set_orientation  inv_mpu_dmp_motion_driver.o
    0x080043a8   0x080043a8   0x00000038   Code   RO         2278    i.dmp_set_shake_reject_thresh  inv_mpu_dmp_motion_driver.o
    0x080043e0   0x080043e0   0x00000026   Code   RO         2279    i.dmp_set_shake_reject_time  inv_mpu_dmp_motion_driver.o
    0x08004406   0x08004406   0x00000026   Code   RO         2280    i.dmp_set_shake_reject_timeout  inv_mpu_dmp_motion_driver.o
    0x0800442c   0x0800442c   0x00000046   Code   RO         2281    i.dmp_set_tap_axes  inv_mpu_dmp_motion_driver.o
    0x08004472   0x08004472   0x00000026   Code   RO         2282    i.dmp_set_tap_count  inv_mpu_dmp_motion_driver.o
    0x08004498   0x08004498   0x000001a0   Code   RO         2283    i.dmp_set_tap_thresh  inv_mpu_dmp_motion_driver.o
    0x08004638   0x08004638   0x00000026   Code   RO         2284    i.dmp_set_tap_time  inv_mpu_dmp_motion_driver.o
    0x0800465e   0x0800465e   0x00000026   Code   RO         2285    i.dmp_set_tap_time_multi  inv_mpu_dmp_motion_driver.o
    0x08004684   0x08004684   0x0000001c   Code   RO          215    i.fputc             usart.o
    0x080046a0   0x080046a0   0x000000b4   Code   RO         1934    i.get_accel_prod_shift  inv_mpu.o
    0x08004754   0x08004754   0x0000046c   Code   RO         1935    i.get_st_biases     inv_mpu.o
    0x08004bc0   0x08004bc0   0x00000110   Code   RO         1936    i.gyro_self_test    inv_mpu.o
    0x08004cd0   0x08004cd0   0x00000028   Code   RO         1937    i.inv_orientation_matrix_to_scalar  inv_mpu.o
    0x08004cf8   0x08004cf8   0x0000004e   Code   RO         1938    i.inv_row_2_scale   inv_mpu.o
    0x08004d46   0x08004d46   0x00000002   PAD
    0x08004d48   0x08004d48   0x000000b8   Code   RO         1511    i.main              main.o
    0x08004e00   0x08004e00   0x00000002   Code   RO         1939    i.mget_ms           inv_mpu.o
    0x08004e02   0x08004e02   0x00000002   PAD
    0x08004e04   0x08004e04   0x00000070   Code   RO         1940    i.mpu_configure_fifo  inv_mpu.o
    0x08004e74   0x08004e74   0x00000224   Code   RO         1941    i.mpu_dmp_get_data  inv_mpu.o
    0x08005098   0x08005098   0x000000a0   Code   RO         1942    i.mpu_dmp_init      inv_mpu.o
    0x08005138   0x08005138   0x0000004c   Code   RO         1943    i.mpu_get_accel_fsr  inv_mpu.o
    0x08005184   0x08005184   0x00000054   Code   RO         1945    i.mpu_get_accel_sens  inv_mpu.o
    0x080051d8   0x080051d8   0x00000010   Code   RO         1950    i.mpu_get_fifo_config  inv_mpu.o
    0x080051e8   0x080051e8   0x00000044   Code   RO         1951    i.mpu_get_gyro_fsr  inv_mpu.o
    0x0800522c   0x0800522c   0x00000050   Code   RO         1953    i.mpu_get_gyro_sens  inv_mpu.o
    0x0800527c   0x0800527c   0x00000050   Code   RO         1955    i.mpu_get_lpf       inv_mpu.o
    0x080052cc   0x080052cc   0x00000020   Code   RO         1957    i.mpu_get_sample_rate  inv_mpu.o
    0x080052ec   0x080052ec   0x000001f0   Code   RO         1959    i.mpu_init          inv_mpu.o
    0x080054dc   0x080054dc   0x000000b8   Code   RO         1960    i.mpu_load_firmware  inv_mpu.o
    0x08005594   0x08005594   0x000000e0   Code   RO         1961    i.mpu_lp_accel_mode  inv_mpu.o
    0x08005674   0x08005674   0x000000c0   Code   RO         1964    i.mpu_read_fifo_stream  inv_mpu.o
    0x08005734   0x08005734   0x00000080   Code   RO         1965    i.mpu_read_mem      inv_mpu.o
    0x080057b4   0x080057b4   0x000001c8   Code   RO         1968    i.mpu_reset_fifo    inv_mpu.o
    0x0800597c   0x0800597c   0x0000011c   Code   RO         1969    i.mpu_run_self_test  inv_mpu.o
    0x08005a98   0x08005a98   0x00000084   Code   RO         1971    i.mpu_set_accel_fsr  inv_mpu.o
    0x08005b1c   0x08005b1c   0x0000014c   Code   RO         1972    i.mpu_set_bypass    inv_mpu.o
    0x08005c68   0x08005c68   0x00000090   Code   RO         1974    i.mpu_set_dmp_state  inv_mpu.o
    0x08005cf8   0x08005cf8   0x00000088   Code   RO         1975    i.mpu_set_gyro_fsr  inv_mpu.o
    0x08005d80   0x08005d80   0x0000006c   Code   RO         1976    i.mpu_set_int_latched  inv_mpu.o
    0x08005dec   0x08005dec   0x00000084   Code   RO         1978    i.mpu_set_lpf       inv_mpu.o
    0x08005e70   0x08005e70   0x0000009c   Code   RO         1979    i.mpu_set_sample_rate  inv_mpu.o
    0x08005f0c   0x08005f0c   0x000000d0   Code   RO         1980    i.mpu_set_sensors   inv_mpu.o
    0x08005fdc   0x08005fdc   0x00000080   Code   RO         1981    i.mpu_write_mem     inv_mpu.o
    0x0800605c   0x0800605c   0x0000000e   Code   RO         2555    i.myabs             motor.o
    0x0800606a   0x0800606a   0x00000094   Code   RO         1982    i.run_self_test     inv_mpu.o
    0x080060fe   0x080060fe   0x00000002   PAD
    0x08006100   0x08006100   0x00000090   Code   RO         1983    i.set_int_enable    inv_mpu.o
    0x08006190   0x08006190   0x0000004c   Code   RO         3020    i.sqrt              m_ws.l(sqrt.o)
    0x080061dc   0x080061dc   0x000000a8   Code   RO         2623    i.uart2_init        usart2.o
    0x08006284   0x08006284   0x000000a0   Code   RO          216    i.uart_init         usart.o
    0x08006324   0x08006324   0x00000128   Code   RO         2467    i.velocity          control.o
    0x0800644c   0x0800644c   0x00000062   Code   RO         2889    x$fpl$d2f           fz_ws.l(d2f.o)
    0x080064ae   0x080064ae   0x00000002   PAD
    0x080064b0   0x080064b0   0x00000150   Code   RO         2891    x$fpl$dadd          fz_ws.l(daddsub_clz.o)
    0x08006600   0x08006600   0x00000010   Code   RO         3059    x$fpl$dcheck1       fz_ws.l(dcheck1.o)
    0x08006610   0x08006610   0x00000018   Code   RO         3061    x$fpl$dcmpinf       fz_ws.l(dcmpi.o)
    0x08006628   0x08006628   0x000002b0   Code   RO         2898    x$fpl$ddiv          fz_ws.l(ddiv.o)
    0x080068d8   0x080068d8   0x00000078   Code   RO         2975    x$fpl$deqf          fz_ws.l(deqf.o)
    0x08006950   0x08006950   0x00000154   Code   RO         2907    x$fpl$dmul          fz_ws.l(dmul.o)
    0x08006aa4   0x08006aa4   0x0000009c   Code   RO         2977    x$fpl$dnaninf       fz_ws.l(dnaninf.o)
    0x08006b40   0x08006b40   0x0000000c   Code   RO         2979    x$fpl$dretinf       fz_ws.l(dretinf.o)
    0x08006b4c   0x08006b4c   0x00000016   Code   RO         2892    x$fpl$drsb          fz_ws.l(daddsub_clz.o)
    0x08006b62   0x08006b62   0x00000002   PAD
    0x08006b64   0x08006b64   0x000001cc   Code   RO         3065    x$fpl$dsqrt         fz_ws.l(dsqrt_noumaal.o)
    0x08006d30   0x08006d30   0x000001d4   Code   RO         2893    x$fpl$dsub          fz_ws.l(daddsub_clz.o)
    0x08006f04   0x08006f04   0x00000056   Code   RO         2909    x$fpl$f2d           fz_ws.l(f2d.o)
    0x08006f5a   0x08006f5a   0x00000002   PAD
    0x08006f5c   0x08006f5c   0x000000c4   Code   RO         2911    x$fpl$fadd          fz_ws.l(faddsub_clz.o)
    0x08007020   0x08007020   0x00000018   Code   RO         2981    x$fpl$fcmpinf       fz_ws.l(fcmpi.o)
    0x08007038   0x08007038   0x00000184   Code   RO         2918    x$fpl$fdiv          fz_ws.l(fdiv.o)
    0x080071bc   0x080071bc   0x00000068   Code   RO         2921    x$fpl$feqf          fz_ws.l(feqf.o)
    0x08007224   0x08007224   0x00000036   Code   RO         2923    x$fpl$ffix          fz_ws.l(ffix.o)
    0x0800725a   0x0800725a   0x00000002   PAD
    0x0800725c   0x0800725c   0x0000003e   Code   RO         2927    x$fpl$ffixu         fz_ws.l(ffixu.o)
    0x0800729a   0x0800729a   0x00000002   PAD
    0x0800729c   0x0800729c   0x00000030   Code   RO         2932    x$fpl$fflt          fz_ws.l(fflt_clz.o)
    0x080072cc   0x080072cc   0x00000026   Code   RO         2931    x$fpl$ffltu         fz_ws.l(fflt_clz.o)
    0x080072f2   0x080072f2   0x00000002   PAD
    0x080072f4   0x080072f4   0x00000068   Code   RO         2937    x$fpl$fleqf         fz_ws.l(fleqf.o)
    0x0800735c   0x0800735c   0x00000102   Code   RO         2939    x$fpl$fmul          fz_ws.l(fmul.o)
    0x0800745e   0x0800745e   0x0000008c   Code   RO         2983    x$fpl$fnaninf       fz_ws.l(fnaninf.o)
    0x080074ea   0x080074ea   0x0000000a   Code   RO         2985    x$fpl$fretinf       fz_ws.l(fretinf.o)
    0x080074f4   0x080074f4   0x00000062   Code   RO         2941    x$fpl$frleqf        fz_ws.l(frleqf.o)
    0x08007556   0x08007556   0x00000014   Code   RO         2912    x$fpl$frsb          fz_ws.l(faddsub_clz.o)
    0x0800756a   0x0800756a   0x00000002   PAD
    0x0800756c   0x0800756c   0x000000ea   Code   RO         2913    x$fpl$fsub          fz_ws.l(faddsub_clz.o)
    0x08007656   0x08007656   0x00000064   Code   RO         3084    x$fpl$retnan        fz_ws.l(retnan.o)
    0x080076ba   0x080076ba   0x0000005c   Code   RO         2987    x$fpl$scalbn        fz_ws.l(scalbn.o)
    0x08007716   0x08007716   0x00000030   Code   RO         3137    x$fpl$trapveneer    fz_ws.l(trapv.o)
    0x08007746   0x08007746   0x00000000   Code   RO         2989    x$fpl$usenofp       fz_ws.l(usenofp.o)
    0x08007746   0x08007746   0x00000002   PAD
    0x08007748   0x08007748   0x00000050   Data   RO         1985    .constdata          inv_mpu.o
    0x08007798   0x08007798   0x00000bf6   Data   RO         2287    .constdata          inv_mpu_dmp_motion_driver.o
    0x0800838e   0x0800838e   0x00000002   PAD
    0x08008390   0x08008390   0x0000001c   Data   RO         2599    .constdata          timer.o
    0x080083ac   0x080083ac   0x000005f0   Data   RO         2667    .constdata          oled.o
    0x0800899c   0x0800899c   0x00000011   Data   RO         2871    .constdata          c_w.l(__printf_flags_wp.o)
    0x080089ad   0x080089ad   0x00000003   PAD
    0x080089b0   0x080089b0   0x00000050   Data   RO         2945    .constdata          m_ws.l(asin.o)
    0x08008a00   0x08008a00   0x00000098   Data   RO         2992    .constdata          m_ws.l(atan.o)
    0x08008a98   0x08008a98   0x00000008   Data   RO         3018    .constdata          m_ws.l(qnan.o)
    0x08008aa0   0x08008aa0   0x0000004d   Data   RO         1986    .conststring        inv_mpu.o
    0x08008aed   0x08008aed   0x00000003   PAD
    0x08008af0   0x08008af0   0x00000020   Data   RO         3214    Region$$Table       anon$$obj.o


    Execution Region ER_RW (Exec base: 0x20000000, Load base: 0x08008b10, Size: 0x000001ac, Max: 0xffffffff, ABSOLUTE, COMPRESSED[0x00000078])

    Exec Addr    Load Addr    Size         Type   Attr      Idx    E Section Name        Object

    0x20000000   COMPRESSED   0x00000004   Data   RW            4    .data               delay.o
    0x20000004   COMPRESSED   0x00000006   Data   RW          218    .data               usart.o
    0x2000000a   COMPRESSED   0x00000014   Data   RW          543    .data               stm32f10x_rcc.o
    0x2000001e   COMPRESSED   0x00000002   PAD
    0x20000020   COMPRESSED   0x00000014   Data   RW         1759    .data               system_stm32f10x.o
    0x20000034   COMPRESSED   0x00000035   Data   RW         1987    .data               inv_mpu.o
    0x20000069   COMPRESSED   0x00000003   PAD
    0x2000006c   COMPRESSED   0x00000098   Data   RW         2468    .data               control.o
    0x20000104   COMPRESSED   0x00000008   Data   RW         2515    .data               encoder.o
    0x2000010c   COMPRESSED   0x00000010   Data   RW         2600    .data               timer.o
    0x2000011c   COMPRESSED   0x0000008e   Data   RW         2625    .data               usart2.o


    Execution Region ER_ZI (Exec base: 0x200001ac, Load base: 0x08008b88, Size: 0x000007bc, Max: 0xffffffff, ABSOLUTE)

    Exec Addr    Load Addr    Size         Type   Attr      Idx    E Section Name        Object

    0x200001ac        -       0x000000c8   Zero   RW          217    .bss                usart.o
    0x20000274        -       0x00000010   Zero   RW         2286    .bss                inv_mpu_dmp_motion_driver.o
    0x20000284        -       0x00000080   Zero   RW         2624    .bss                usart2.o
    0x20000304        -       0x00000060   Zero   RW         3068    .bss                c_w.l(libspace.o)
    0x20000364   0x08008b88   0x00000004   PAD
    0x20000368        -       0x00000200   Zero   RW         1505    HEAP                startup_stm32f10x_md.o
    0x20000568        -       0x00000400   Zero   RW         1504    STACK               startup_stm32f10x_md.o


==============================================================================

Image component sizes


      Code (inc. data)   RO Data    RW Data    ZI Data      Debug   Object Name

      2872        334          0        152          0       6491   control.o
         0          0          0          0          0         32   core_cm3.o
       220         26          0          4          0     246563   delay.o
       444         30          0          8          0       3160   encoder.o
      6860        288        157         53          0      30992   inv_mpu.o
      3096        122       3062          0         16      20782   inv_mpu_dmp_motion_driver.o
       184         32          0          0          0     216683   main.o
       172         22          0          0          0     251117   misc.o
       262         32          0          0          0       2092   motor.o
       768          0          0          0          0       7539   mpu6050.o
        80          4          0          0          0        572   mpu_exti.o
       678        104          0          0          0       4842   mpuiic.o
      1032         22       1520          0          0       9413   oled.o
       200         10          0          0          0        659   pwm.o
        64         26        236          0       1536        788   startup_stm32f10x_md.o
       148          6          0          0          0        968   stm32f10x_exti.o
       518         10          0          0          0       5135   stm32f10x_gpio.o
        26          0          0          0          0       3678   stm32f10x_it.o
       276         32          0         20          0       4426   stm32f10x_rcc.o
      1568        180          0          0          0      16111   stm32f10x_tim.o
       408          6          0          0          0       4982   stm32f10x_usart.o
       242         58          0          0          0       1044   sys.o
       328         28          0         20          0       2077   system_stm32f10x.o
       220         30         28         16          0       1497   timer.o
       328         26          0          6        200       4104   usart.o
       832         38          0        142        128       2481   usart2.o

    ----------------------------------------------------------------------
     21862       1466       5040        428       1880     848228   Object Totals
         0          0         32          0          0          0   (incl. Generated)
        36          0          5          7          0          0   (incl. Padding)

    ----------------------------------------------------------------------

      Code (inc. data)   RO Data    RW Data    ZI Data      Debug   Library Member Name

        90          0          0          0          0          0   __dczerorl2.o
         8          0          0          0          0         68   __main.o
       312          4         17          0          0         92   __printf_flags_wp.o
        14          0          0          0          0         68   __printf_wp.o
         0          0          0          0          0          0   __rtentry.o
        12          0          0          0          0          0   __rtentry2.o
         6          0          0          0          0          0   __rtentry4.o
        52          8          0          0          0          0   __scatter.o
        28          0          0          0          0          0   __scatter_zi.o
        48          6          0          0          0         96   _printf_char_common.o
        36          4          0          0          0         80   _printf_char_file.o
         6          0          0          0          0          0   _printf_d.o
       120         16          0          0          0         92   _printf_dec.o
       178          0          0          0          0         88   _printf_intcommon.o
         0          0          0          0          0          0   _printf_percent.o
         4          0          0          0          0          0   _printf_percent_end.o
        22          0          0          0          0        100   _rserrno.o
        16          0          0          0          0         68   aeabi_memset.o
        18          0          0          0          0         80   exit.o
         8          0          0          0          0         68   ferror.o
         6          0          0          0          0        152   heapauxi.o
         2          0          0          0          0          0   libinit.o
         2          0          0          0          0          0   libinit2.o
         2          0          0          0          0          0   libshutdown.o
         2          0          0          0          0          0   libshutdown2.o
         8          4          0          0         96         68   libspace.o
        72          0          0          0          0         76   llsdiv.o
       238          0          0          0          0        100   lludivv7m.o
        88          0          0          0          0         76   memcmp.o
        24          4          0          0          0         84   noretval__2printf.o
         8          4          0          0          0         68   rt_errno_addr_intlibspace.o
        68          0          0          0          0         68   rt_memclr.o
        78          0          0          0          0         80   rt_memclr_w.o
         2          0          0          0          0          0   rtexit.o
        10          0          0          0          0          0   rtexit2.o
        74          0          0          0          0         80   sys_stackheap_outer.o
         2          0          0          0          0         68   use_no_semi.o
         2          0          0          0          0         68   use_no_semi_2.o
        98          4          0          0          0         92   d2f.o
       826         16          0          0          0        348   daddsub_clz.o
        16          4          0          0          0         68   dcheck1.o
        24          0          0          0          0         68   dcmpi.o
       688        140          0          0          0        208   ddiv.o
       120          4          0          0          0         92   deqf.o
       340         12          0          0          0        104   dmul.o
       156          4          0          0          0         92   dnaninf.o
        12          0          0          0          0         68   dretinf.o
       460         56          0          0          0        120   dsqrt_noumaal.o
        86          4          0          0          0         84   f2d.o
       450          8          0          0          0        236   faddsub_clz.o
        24          0          0          0          0         68   fcmpi.o
       388         76          0          0          0         96   fdiv.o
       104          4          0          0          0         84   feqf.o
        54          4          0          0          0         84   ffix.o
        62          4          0          0          0         84   ffixu.o
        86          0          0          0          0        136   fflt_clz.o
       104          4          0          0          0         84   fleqf.o
       258          4          0          0          0         84   fmul.o
       140          4          0          0          0         84   fnaninf.o
        10          0          0          0          0         68   fretinf.o
        98          0          0          0          0         68   frleqf.o
       100          0          0          0          0         68   retnan.o
        92          0          0          0          0         68   scalbn.o
        48          0          0          0          0         68   trapv.o
         0          0          0          0          0          0   usenofp.o
       624         52         80          0          0        168   asin.o
       544         70        152          0          0        124   atan.o
       412         38          0          0          0        144   atan2.o
        38          6          0          0          0        272   dunder.o
        40          0          0          0          0         68   fpclassify.o
       170          0          0          0          0         96   poly.o
         0          0          8          0          0          0   qnan.o
        76          0          0          0          0         84   sqrt.o

    ----------------------------------------------------------------------
      8438        568        260          0        100       5568   Library Totals
        24          0          3          0          4          0   (incl. Padding)

    ----------------------------------------------------------------------

      Code (inc. data)   RO Data    RW Data    ZI Data      Debug   Library Name

      1666         50         17          0         96       1888   c_w.l
      4844        352          0          0          0       2724   fz_ws.l
      1904        166        240          0          0        956   m_ws.l

    ----------------------------------------------------------------------
      8438        568        260          0        100       5568   Library Totals

    ----------------------------------------------------------------------

==============================================================================


      Code (inc. data)   RO Data    RW Data    ZI Data      Debug   

     30300       2034       5300        428       1980     841832   Grand Totals
     30300       2034       5300        120       1980     841832   ELF Image Totals (compressed)
     30300       2034       5300        120          0          0   ROM Totals

==============================================================================

    Total RO  Size (Code + RO Data)                35600 (  34.77kB)
    Total RW  Size (RW Data + ZI Data)              2408 (   2.35kB)
    Total ROM Size (Code + RO Data + RW Data)      35720 (  34.88kB)

==============================================================================

